{
  "_format": "hh-sol-artifact-1",
  "contractName": "BridgeBase",
  "sourceName": "contracts/BridgeBase.sol",
  "abi": [
    {
      "anonymous": false,
      "inputs": [
        {
          "indexed": false,
          "internalType": "address",
          "name": "from",
          "type": "address"
        },
        {
          "indexed": false,
          "internalType": "uint8",
          "name": "network",
          "type": "uint8"
        },
        {
          "indexed": false,
          "internalType": "address",
          "name": "to",
          "type": "address"
        },
        {
          "indexed": false,
          "internalType": "uint256",
          "name": "amount",
          "type": "uint256"
        },
        {
          "indexed": false,
          "internalType": "uint256",
          "name": "date",
          "type": "uint256"
        },
        {
          "indexed": false,
          "internalType": "uint256",
          "name": "nonce",
          "type": "uint256"
        }
      ],
      "name": "Convert",
      "type": "event"
    },
    {
      "inputs": [],
      "name": "admin",
      "outputs": [
        {
          "internalType": "address",
          "name": "",
          "type": "address"
        }
      ],
      "stateMutability": "view",
      "type": "function"
    },
    {
      "inputs": [
        {
          "internalType": "uint8",
          "name": "network",
          "type": "uint8"
        },
        {
          "internalType": "address",
          "name": "_to",
          "type": "address"
        },
        {
          "internalType": "uint256",
          "name": "_amount",
          "type": "uint256"
        }
      ],
      "name": "deposit",
      "outputs": [],
      "stateMutability": "nonpayable",
      "type": "function"
    },
    {
      "inputs": [],
      "name": "fee",
      "outputs": [
        {
          "internalType": "uint8",
          "name": "",
          "type": "uint8"
        }
      ],
      "stateMutability": "view",
      "type": "function"
    },
    {
      "inputs": [],
      "name": "feeWallet",
      "outputs": [
        {
          "internalType": "address",
          "name": "",
          "type": "address"
        }
      ],
      "stateMutability": "view",
      "type": "function"
    },
    {
      "inputs": [
        {
          "internalType": "address",
          "name": "aa",
          "type": "address"
        }
      ],
      "name": "getBalance",
      "outputs": [
        {
          "internalType": "uint256",
          "name": "",
          "type": "uint256"
        }
      ],
      "stateMutability": "view",
      "type": "function"
    },
    {
      "inputs": [],
      "name": "getServerBalance",
      "outputs": [
        {
          "internalType": "uint256",
          "name": "",
          "type": "uint256"
        }
      ],
      "stateMutability": "view",
      "type": "function"
    },
    {
      "inputs": [
        {
          "internalType": "address",
          "name": "_admin",
          "type": "address"
        },
        {
          "internalType": "address",
          "name": "_token",
          "type": "address"
        }
      ],
      "name": "initialize",
      "outputs": [],
      "stateMutability": "nonpayable",
      "type": "function"
    },
    {
      "inputs": [
        {
          "internalType": "address",
          "name": "",
          "type": "address"
        }
      ],
      "name": "nonce",
      "outputs": [
        {
          "internalType": "uint256",
          "name": "",
          "type": "uint256"
        }
      ],
      "stateMutability": "view",
      "type": "function"
    },
    {
      "inputs": [
        {
          "internalType": "address",
          "name": "",
          "type": "address"
        },
        {
          "internalType": "uint256",
          "name": "",
          "type": "uint256"
        }
      ],
      "name": "processedNonces",
      "outputs": [
        {
          "internalType": "bool",
          "name": "",
          "type": "bool"
        }
      ],
      "stateMutability": "view",
      "type": "function"
    },
    {
      "inputs": [
        {
          "internalType": "uint8",
          "name": "_fee",
          "type": "uint8"
        },
        {
          "internalType": "address",
          "name": "_feeWallet",
          "type": "address"
        }
      ],
      "name": "setFee",
      "outputs": [],
      "stateMutability": "nonpayable",
      "type": "function"
    },
    {
      "inputs": [],
      "name": "token",
      "outputs": [
        {
          "internalType": "contract Token",
          "name": "",
          "type": "address"
        }
      ],
      "stateMutability": "view",
      "type": "function"
    },
    {
      "inputs": [
        {
          "internalType": "address",
          "name": "_to",
          "type": "address"
        },
        {
          "internalType": "uint256",
          "name": "_amount",
          "type": "uint256"
        },
        {
          "internalType": "uint256",
          "name": "_nonce",
          "type": "uint256"
        }
      ],
      "name": "withdraw",
      "outputs": [],
      "stateMutability": "nonpayable",
      "type": "function"
    }
  ],
  "bytecode": "0x608060405234801561001057600080fd5b506119cd806100206000396000f3fe608060405234801561001057600080fd5b50600436106100b35760003560e01c8063ddca3f4311610071578063ddca3f431461018a578063e74f4f68146101a8578063f25f4b56146101c4578063f851a440146101e2578063f8b2cb4f14610200578063fc0c546a14610230576100b3565b8062838172146100b8578063485cc955146100d457806370ae92d2146100f05780637cc7024014610120578063b5c5f67214610150578063d072c3261461016c575b600080fd5b6100d260048036038101906100cd919061106f565b61024e565b005b6100ee60048036038101906100e991906110c2565b61052d565b005b61010a60048036038101906101059190611102565b610775565b604051610117919061113e565b60405180910390f35b61013a60048036038101906101359190611159565b61078d565b60405161014791906111b4565b60405180910390f35b61016a600480360381019061016591906111cf565b6107bc565b005b610174610bc9565b604051610181919061113e565b60405180910390f35b610192610c6c565b60405161019f9190611231565b60405180910390f35b6101c260048036038101906101bd919061124c565b610c7f565b005b6101cc610e36565b6040516101d9919061129b565b60405180910390f35b6101ea610e5c565b6040516101f7919061129b565b60405180910390f35b61021a60048036038101906102159190611102565b610e82565b604051610227919061113e565b60405180910390f35b610238610f27565b6040516102459190611315565b60405180910390f35b600360003373ffffffffffffffffffffffffffffffffffffffff1673ffffffffffffffffffffffffffffffffffffffff168152602001908152602001600020600081548092919061029e9061135f565b9190505550600260009054906101000a900473ffffffffffffffffffffffffffffffffffffffff1673ffffffffffffffffffffffffffffffffffffffff166323b872dd333061032d6107d061031f600560009054906101000a900460ff1660ff166107d061030c91906113b6565b61ffff1688610f4d90919063ffffffff16565b610f6390919063ffffffff16565b6040518463ffffffff1660e01b815260040161034b939291906113ea565b6020604051808303816000875af115801561036a573d6000803e3d6000fd5b505050506040513d601f19601f8201168201806040525081019061038e919061144d565b506000600560009054906101000a900460ff1660ff1611156104a857600260009054906101000a900473ffffffffffffffffffffffffffffffffffffffff1673ffffffffffffffffffffffffffffffffffffffff166323b872dd33600160009054906101000a900473ffffffffffffffffffffffffffffffffffffffff166104456107d0610437600560009054906101000a900460ff1660ff1688610f4d90919063ffffffff16565b610f6390919063ffffffff16565b6040518463ffffffff1660e01b8152600401610463939291906113ea565b6020604051808303816000875af1158015610482573d6000803e3d6000fd5b505050506040513d601f19601f820116820180604052508101906104a6919061144d565b505b7fc2e7f32ff7438118072eeb590ab4e8652d32fac0f3d9591af901940ef49d82023384848442600360003373ffffffffffffffffffffffffffffffffffffffff1673ffffffffffffffffffffffffffffffffffffffff168152602001908152602001600020546040516105209695949392919061147a565b60405180910390a1505050565b600060019054906101000a900460ff166105555760008054906101000a900460ff161561055e565b61055d610f79565b5b61059d576040517f08c379a00000000000000000000000000000000000000000000000000000000081526004016105949061155e565b60405180910390fd5b60008060019054906101000a900460ff1615905080156105ed576001600060016101000a81548160ff02191690831515021790555060016000806101000a81548160ff0219169083151502179055505b600073ffffffffffffffffffffffffffffffffffffffff168373ffffffffffffffffffffffffffffffffffffffff16141561065d576040517f08c379a0000000000000000000000000000000000000000000000000000000008152600401610654906115ca565b60405180910390fd5b600073ffffffffffffffffffffffffffffffffffffffff168273ffffffffffffffffffffffffffffffffffffffff1614156106cd576040517f08c379a00000000000000000000000000000000000000000000000000000000081526004016106c490611636565b60405180910390fd5b82600060026101000a81548173ffffffffffffffffffffffffffffffffffffffff021916908373ffffffffffffffffffffffffffffffffffffffff16021790555081600260006101000a81548173ffffffffffffffffffffffffffffffffffffffff021916908373ffffffffffffffffffffffffffffffffffffffff16021790555080156107705760008060016101000a81548160ff0219169083151502179055505b505050565b60036020528060005260406000206000915090505481565b60046020528160005260406000206020528060005260406000206000915091509054906101000a900460ff1681565b600060029054906101000a900473ffffffffffffffffffffffffffffffffffffffff1673ffffffffffffffffffffffffffffffffffffffff163373ffffffffffffffffffffffffffffffffffffffff161461084c576040517f08c379a0000000000000000000000000000000000000000000000000000000008152600401610843906116a2565b60405180910390fd5b600073ffffffffffffffffffffffffffffffffffffffff168373ffffffffffffffffffffffffffffffffffffffff1614156108bc576040517f08c379a00000000000000000000000000000000000000000000000000000000081526004016108b39061170e565b60405180910390fd5b600460003373ffffffffffffffffffffffffffffffffffffffff1673ffffffffffffffffffffffffffffffffffffffff168152602001908152602001600020600082815260200190815260200160002060009054906101000a900460ff161561095a576040517f08c379a00000000000000000000000000000000000000000000000000000000081526004016109519061177a565b60405180910390fd5b6001600460003373ffffffffffffffffffffffffffffffffffffffff1673ffffffffffffffffffffffffffffffffffffffff168152602001908152602001600020600083815260200190815260200160002060006101000a81548160ff021916908315150217905550600260009054906101000a900473ffffffffffffffffffffffffffffffffffffffff1673ffffffffffffffffffffffffffffffffffffffff1663a9059cbb84610a4c6103e8610a3e600560009054906101000a900460ff1660ff166103e8610a2b91906113b6565b61ffff1688610f4d90919063ffffffff16565b610f6390919063ffffffff16565b6040518363ffffffff1660e01b8152600401610a6992919061179a565b6020604051808303816000875af1158015610a88573d6000803e3d6000fd5b505050506040513d601f19601f82011682018060405250810190610aac919061144d565b506000600560009054906101000a900460ff1660ff161115610bc457600260009054906101000a900473ffffffffffffffffffffffffffffffffffffffff1673ffffffffffffffffffffffffffffffffffffffff1663a9059cbb600160009054906101000a900473ffffffffffffffffffffffffffffffffffffffff16610b626107d0610b54600560009054906101000a900460ff1660ff1688610f4d90919063ffffffff16565b610f6390919063ffffffff16565b6040518363ffffffff1660e01b8152600401610b7f92919061179a565b6020604051808303816000875af1158015610b9e573d6000803e3d6000fd5b505050506040513d601f19601f82011682018060405250810190610bc2919061144d565b505b505050565b6000600260009054906101000a900473ffffffffffffffffffffffffffffffffffffffff1673ffffffffffffffffffffffffffffffffffffffff166370a08231306040518263ffffffff1660e01b8152600401610c26919061129b565b602060405180830381865afa158015610c43573d6000803e3d6000fd5b505050506040513d601f19601f82011682018060405250810190610c6791906117d8565b905090565b600560009054906101000a900460ff1681565b600060029054906101000a900473ffffffffffffffffffffffffffffffffffffffff1673ffffffffffffffffffffffffffffffffffffffff163373ffffffffffffffffffffffffffffffffffffffff1614610d0f576040517f08c379a0000000000000000000000000000000000000000000000000000000008152600401610d06906116a2565b60405180910390fd5b60008260ff1610158015610d2757506103e88260ff16105b610d66576040517f08c379a0000000000000000000000000000000000000000000000000000000008152600401610d5d90611851565b60405180910390fd5b600073ffffffffffffffffffffffffffffffffffffffff168173ffffffffffffffffffffffffffffffffffffffff161415610dd6576040517f08c379a0000000000000000000000000000000000000000000000000000000008152600401610dcd906118bd565b60405180910390fd5b81600560006101000a81548160ff021916908360ff16021790555080600160006101000a81548173ffffffffffffffffffffffffffffffffffffffff021916908373ffffffffffffffffffffffffffffffffffffffff1602179055505050565b600160009054906101000a900473ffffffffffffffffffffffffffffffffffffffff1681565b600060029054906101000a900473ffffffffffffffffffffffffffffffffffffffff1681565b6000600260009054906101000a900473ffffffffffffffffffffffffffffffffffffffff1673ffffffffffffffffffffffffffffffffffffffff166370a08231836040518263ffffffff1660e01b8152600401610edf919061129b565b602060405180830381865afa158015610efc573d6000803e3d6000fd5b505050506040513d601f19601f82011682018060405250810190610f2091906117d8565b9050919050565b600260009054906101000a900473ffffffffffffffffffffffffffffffffffffffff1681565b60008183610f5b91906118dd565b905092915050565b60008183610f719190611966565b905092915050565b6000610f8430610f8a565b15905090565b600080823b905060008111915050919050565b600080fd5b600060ff82169050919050565b610fb881610fa2565b8114610fc357600080fd5b50565b600081359050610fd581610faf565b92915050565b600073ffffffffffffffffffffffffffffffffffffffff82169050919050565b600061100682610fdb565b9050919050565b61101681610ffb565b811461102157600080fd5b50565b6000813590506110338161100d565b92915050565b6000819050919050565b61104c81611039565b811461105757600080fd5b50565b60008135905061106981611043565b92915050565b60008060006060848603121561108857611087610f9d565b5b600061109686828701610fc6565b93505060206110a786828701611024565b92505060406110b88682870161105a565b9150509250925092565b600080604083850312156110d9576110d8610f9d565b5b60006110e785828601611024565b92505060206110f885828601611024565b9150509250929050565b60006020828403121561111857611117610f9d565b5b600061112684828501611024565b91505092915050565b61113881611039565b82525050565b6000602082019050611153600083018461112f565b92915050565b600080604083850312156111705761116f610f9d565b5b600061117e85828601611024565b925050602061118f8582860161105a565b9150509250929050565b60008115159050919050565b6111ae81611199565b82525050565b60006020820190506111c960008301846111a5565b92915050565b6000806000606084860312156111e8576111e7610f9d565b5b60006111f686828701611024565b93505060206112078682870161105a565b92505060406112188682870161105a565b9150509250925092565b61122b81610fa2565b82525050565b60006020820190506112466000830184611222565b92915050565b6000806040838503121561126357611262610f9d565b5b600061127185828601610fc6565b925050602061128285828601611024565b9150509250929050565b61129581610ffb565b82525050565b60006020820190506112b0600083018461128c565b92915050565b6000819050919050565b60006112db6112d66112d184610fdb565b6112b6565b610fdb565b9050919050565b60006112ed826112c0565b9050919050565b60006112ff826112e2565b9050919050565b61130f816112f4565b82525050565b600060208201905061132a6000830184611306565b92915050565b7f4e487b7100000000000000000000000000000000000000000000000000000000600052601160045260246000fd5b600061136a82611039565b91507fffffffffffffffffffffffffffffffffffffffffffffffffffffffffffffffff82141561139d5761139c611330565b5b600182019050919050565b600061ffff82169050919050565b60006113c1826113a8565b91506113cc836113a8565b9250828210156113df576113de611330565b5b828203905092915050565b60006060820190506113ff600083018661128c565b61140c602083018561128c565b611419604083018461112f565b949350505050565b61142a81611199565b811461143557600080fd5b50565b60008151905061144781611421565b92915050565b60006020828403121561146357611462610f9d565b5b600061147184828501611438565b91505092915050565b600060c08201905061148f600083018961128c565b61149c6020830188611222565b6114a9604083018761128c565b6114b6606083018661112f565b6114c3608083018561112f565b6114d060a083018461112f565b979650505050505050565b600082825260208201905092915050565b7f496e697469616c697a61626c653a20636f6e747261637420697320616c72656160008201527f647920696e697469616c697a6564000000000000000000000000000000000000602082015250565b6000611548602e836114db565b9150611553826114ec565b604082019050919050565b600060208201905081810360008301526115778161153b565b9050919050565b7f5f61646d696e2063616e206e6f74206265203020616464726573730000000000600082015250565b60006115b4601b836114db565b91506115bf8261157e565b602082019050919050565b600060208201905081810360008301526115e3816115a7565b9050919050565b7f5f746f6b656e2063616e206e6f74206265203020616464726573730000000000600082015250565b6000611620601b836114db565b915061162b826115ea565b602082019050919050565b6000602082019050818103600083015261164f81611613565b9050919050565b7f6f6e6c792061646d696e00000000000000000000000000000000000000000000600082015250565b600061168c600a836114db565b915061169782611656565b602082019050919050565b600060208201905081810360008301526116bb8161167f565b9050919050565b7f5f746f2063616e206e6f74206265203020616464726573730000000000000000600082015250565b60006116f86018836114db565b9150611703826116c2565b602082019050919050565b60006020820190508181036000830152611727816116eb565b9050919050565b7f616c7265616479206d696e740000000000000000000000000000000000000000600082015250565b6000611764600c836114db565b915061176f8261172e565b602082019050919050565b6000602082019050818103600083015261179381611757565b9050919050565b60006040820190506117af600083018561128c565b6117bc602083018461112f565b9392505050565b6000815190506117d281611043565b92915050565b6000602082840312156117ee576117ed610f9d565b5b60006117fc848285016117c3565b91505092915050565b7f303c3d2c3c313030300000000000000000000000000000000000000000000000600082015250565b600061183b6009836114db565b915061184682611805565b602082019050919050565b6000602082019050818103600083015261186a8161182e565b9050919050565b7f5f66656557616c6c65742063616e206e6f742062652030206164647265737300600082015250565b60006118a7601f836114db565b91506118b282611871565b602082019050919050565b600060208201905081810360008301526118d68161189a565b9050919050565b60006118e882611039565b91506118f383611039565b9250817fffffffffffffffffffffffffffffffffffffffffffffffffffffffffffffffff048311821515161561192c5761192b611330565b5b828202905092915050565b7f4e487b7100000000000000000000000000000000000000000000000000000000600052601260045260246000fd5b600061197182611039565b915061197c83611039565b92508261198c5761198b611937565b5b82820490509291505056fea2646970667358221220bf866c45f826d5a7f796ead29216acf006e33b5b67b7e5d631ba9a643b6ec7cb64736f6c634300080b0033",
  "linkReferences": {},
  "deployedLinkReferences": {}
}