{
  "_format": "hh-sol-artifact-1",
  "contractName": "Token",
  "sourceName": "contracts/Token.sol",
  "abi": [
    {
      "anonymous": false,
      "inputs": [
        {
          "indexed": true,
          "internalType": "address",
          "name": "owner",
          "type": "address"
        },
        {
          "indexed": true,
          "internalType": "address",
          "name": "spender",
          "type": "address"
        },
        {
          "indexed": false,
          "internalType": "uint256",
          "name": "value",
          "type": "uint256"
        }
      ],
      "name": "Approval",
      "type": "event"
    },
    {
      "anonymous": false,
      "inputs": [
        {
          "indexed": true,
          "internalType": "address",
          "name": "account",
          "type": "address"
        },
        {
          "indexed": false,
          "internalType": "bool",
          "name": "isExcluded",
          "type": "bool"
        }
      ],
      "name": "ExcludedMaxTransactionAmount",
      "type": "event"
    },
    {
      "anonymous": false,
      "inputs": [
        {
          "indexed": false,
          "internalType": "address[]",
          "name": "bots",
          "type": "address[]"
        }
      ],
      "name": "LogAddBots",
      "type": "event"
    },
    {
      "anonymous": false,
      "inputs": [
        {
          "indexed": false,
          "internalType": "address[]",
          "name": "notbots",
          "type": "address[]"
        }
      ],
      "name": "LogRemoveBots",
      "type": "event"
    },
    {
      "anonymous": false,
      "inputs": [
        {
          "indexed": false,
          "internalType": "uint256",
          "name": "tokenAmount",
          "type": "uint256"
        }
      ],
      "name": "RewardLiquidityProviders",
      "type": "event"
    },
    {
      "anonymous": false,
      "inputs": [
        {
          "indexed": true,
          "internalType": "bytes32",
          "name": "role",
          "type": "bytes32"
        },
        {
          "indexed": true,
          "internalType": "bytes32",
          "name": "previousAdminRole",
          "type": "bytes32"
        },
        {
          "indexed": true,
          "internalType": "bytes32",
          "name": "newAdminRole",
          "type": "bytes32"
        }
      ],
      "name": "RoleAdminChanged",
      "type": "event"
    },
    {
      "anonymous": false,
      "inputs": [
        {
          "indexed": true,
          "internalType": "bytes32",
          "name": "role",
          "type": "bytes32"
        },
        {
          "indexed": true,
          "internalType": "address",
          "name": "account",
          "type": "address"
        },
        {
          "indexed": true,
          "internalType": "address",
          "name": "sender",
          "type": "address"
        }
      ],
      "name": "RoleGranted",
      "type": "event"
    },
    {
      "anonymous": false,
      "inputs": [
        {
          "indexed": true,
          "internalType": "bytes32",
          "name": "role",
          "type": "bytes32"
        },
        {
          "indexed": true,
          "internalType": "address",
          "name": "account",
          "type": "address"
        },
        {
          "indexed": true,
          "internalType": "address",
          "name": "sender",
          "type": "address"
        }
      ],
      "name": "RoleRevoked",
      "type": "event"
    },
    {
      "anonymous": false,
      "inputs": [
        {
          "indexed": false,
          "internalType": "uint256",
          "name": "tokensSwapped",
          "type": "uint256"
        },
        {
          "indexed": false,
          "internalType": "uint256",
          "name": "ethReceived",
          "type": "uint256"
        },
        {
          "indexed": false,
          "internalType": "uint256",
          "name": "tokensIntoLiqudity",
          "type": "uint256"
        }
      ],
      "name": "SwapAndLiquify",
      "type": "event"
    },
    {
      "anonymous": false,
      "inputs": [
        {
          "indexed": false,
          "internalType": "bool",
          "name": "enabled",
          "type": "bool"
        }
      ],
      "name": "SwapAndLiquifyEnabledUpdated",
      "type": "event"
    },
    {
      "anonymous": false,
      "inputs": [
        {
          "indexed": false,
          "internalType": "uint256",
          "name": "amountIn",
          "type": "uint256"
        },
        {
          "indexed": false,
          "internalType": "address[]",
          "name": "path",
          "type": "address[]"
        }
      ],
      "name": "SwapETHForTokens",
      "type": "event"
    },
    {
      "anonymous": false,
      "inputs": [
        {
          "indexed": false,
          "internalType": "uint256",
          "name": "amountIn",
          "type": "uint256"
        },
        {
          "indexed": false,
          "internalType": "address[]",
          "name": "path",
          "type": "address[]"
        }
      ],
      "name": "SwapTokensForETH",
      "type": "event"
    },
    {
      "anonymous": false,
      "inputs": [
        {
          "indexed": true,
          "internalType": "address",
          "name": "from",
          "type": "address"
        },
        {
          "indexed": true,
          "internalType": "address",
          "name": "to",
          "type": "address"
        },
        {
          "indexed": false,
          "internalType": "uint256",
          "name": "value",
          "type": "uint256"
        }
      ],
      "name": "Transfer",
      "type": "event"
    },
    {
      "inputs": [],
      "name": "DEFAULT_ADMIN_ROLE",
      "outputs": [
        {
          "internalType": "bytes32",
          "name": "",
          "type": "bytes32"
        }
      ],
      "stateMutability": "view",
      "type": "function"
    },
    {
      "inputs": [],
      "name": "MINTER_ROLE",
      "outputs": [
        {
          "internalType": "bytes32",
          "name": "",
          "type": "bytes32"
        }
      ],
      "stateMutability": "view",
      "type": "function"
    },
    {
      "inputs": [],
      "name": "_buyLiquidityFee",
      "outputs": [
        {
          "internalType": "uint256",
          "name": "",
          "type": "uint256"
        }
      ],
      "stateMutability": "view",
      "type": "function"
    },
    {
      "inputs": [],
      "name": "_buyMarketingFee",
      "outputs": [
        {
          "internalType": "uint256",
          "name": "",
          "type": "uint256"
        }
      ],
      "stateMutability": "view",
      "type": "function"
    },
    {
      "inputs": [],
      "name": "_buyTaxFee",
      "outputs": [
        {
          "internalType": "uint256",
          "name": "",
          "type": "uint256"
        }
      ],
      "stateMutability": "view",
      "type": "function"
    },
    {
      "inputs": [
        {
          "internalType": "address",
          "name": "",
          "type": "address"
        }
      ],
      "name": "_isExcludedMaxTransactionAmount",
      "outputs": [
        {
          "internalType": "bool",
          "name": "",
          "type": "bool"
        }
      ],
      "stateMutability": "view",
      "type": "function"
    },
    {
      "inputs": [],
      "name": "_sellLiquidityFee",
      "outputs": [
        {
          "internalType": "uint256",
          "name": "",
          "type": "uint256"
        }
      ],
      "stateMutability": "view",
      "type": "function"
    },
    {
      "inputs": [],
      "name": "_sellMarketingFee",
      "outputs": [
        {
          "internalType": "uint256",
          "name": "",
          "type": "uint256"
        }
      ],
      "stateMutability": "view",
      "type": "function"
    },
    {
      "inputs": [],
      "name": "_sellTaxFee",
      "outputs": [
        {
          "internalType": "uint256",
          "name": "",
          "type": "uint256"
        }
      ],
      "stateMutability": "view",
      "type": "function"
    },
    {
      "inputs": [
        {
          "internalType": "address[]",
          "name": "_bots",
          "type": "address[]"
        }
      ],
      "name": "addBots",
      "outputs": [],
      "stateMutability": "nonpayable",
      "type": "function"
    },
    {
      "inputs": [
        {
          "internalType": "address[]",
          "name": "airdropWallets",
          "type": "address[]"
        },
        {
          "internalType": "uint256[]",
          "name": "amount",
          "type": "uint256[]"
        }
      ],
      "name": "airdropToWallets",
      "outputs": [],
      "stateMutability": "nonpayable",
      "type": "function"
    },
    {
      "inputs": [
        {
          "internalType": "address",
          "name": "owner",
          "type": "address"
        },
        {
          "internalType": "address",
          "name": "spender",
          "type": "address"
        }
      ],
      "name": "allowance",
      "outputs": [
        {
          "internalType": "uint256",
          "name": "",
          "type": "uint256"
        }
      ],
      "stateMutability": "view",
      "type": "function"
    },
    {
      "inputs": [
        {
          "internalType": "address",
          "name": "spender",
          "type": "address"
        },
        {
          "internalType": "uint256",
          "name": "amount",
          "type": "uint256"
        }
      ],
      "name": "approve",
      "outputs": [
        {
          "internalType": "bool",
          "name": "",
          "type": "bool"
        }
      ],
      "stateMutability": "nonpayable",
      "type": "function"
    },
    {
      "inputs": [
        {
          "internalType": "address",
          "name": "",
          "type": "address"
        }
      ],
      "name": "automatedMarketMakerPairs",
      "outputs": [
        {
          "internalType": "bool",
          "name": "",
          "type": "bool"
        }
      ],
      "stateMutability": "view",
      "type": "function"
    },
    {
      "inputs": [
        {
          "internalType": "address",
          "name": "account",
          "type": "address"
        }
      ],
      "name": "balanceOf",
      "outputs": [
        {
          "internalType": "uint256",
          "name": "",
          "type": "uint256"
        }
      ],
      "stateMutability": "view",
      "type": "function"
    },
    {
      "inputs": [
        {
          "internalType": "address",
          "name": "",
          "type": "address"
        }
      ],
      "name": "bots",
      "outputs": [
        {
          "internalType": "bool",
          "name": "",
          "type": "bool"
        }
      ],
      "stateMutability": "view",
      "type": "function"
    },
    {
      "inputs": [
        {
          "internalType": "uint256",
          "name": "bnbAmountInWei",
          "type": "uint256"
        }
      ],
      "name": "buyBackTokens",
      "outputs": [],
      "stateMutability": "nonpayable",
      "type": "function"
    },
    {
      "inputs": [],
      "name": "decimals",
      "outputs": [
        {
          "internalType": "uint8",
          "name": "",
          "type": "uint8"
        }
      ],
      "stateMutability": "view",
      "type": "function"
    },
    {
      "inputs": [
        {
          "internalType": "address",
          "name": "spender",
          "type": "address"
        },
        {
          "internalType": "uint256",
          "name": "subtractedValue",
          "type": "uint256"
        }
      ],
      "name": "decreaseAllowance",
      "outputs": [
        {
          "internalType": "bool",
          "name": "",
          "type": "bool"
        }
      ],
      "stateMutability": "nonpayable",
      "type": "function"
    },
    {
      "inputs": [],
      "name": "disableTransferDelay",
      "outputs": [
        {
          "internalType": "bool",
          "name": "",
          "type": "bool"
        }
      ],
      "stateMutability": "nonpayable",
      "type": "function"
    },
    {
      "inputs": [],
      "name": "enableTrading",
      "outputs": [],
      "stateMutability": "nonpayable",
      "type": "function"
    },
    {
      "inputs": [
        {
          "internalType": "address",
          "name": "account",
          "type": "address"
        }
      ],
      "name": "excludeFromFee",
      "outputs": [],
      "stateMutability": "nonpayable",
      "type": "function"
    },
    {
      "inputs": [
        {
          "internalType": "address",
          "name": "updAds",
          "type": "address"
        },
        {
          "internalType": "bool",
          "name": "isEx",
          "type": "bool"
        }
      ],
      "name": "excludeFromMaxTransaction",
      "outputs": [],
      "stateMutability": "nonpayable",
      "type": "function"
    },
    {
      "inputs": [
        {
          "internalType": "address",
          "name": "account",
          "type": "address"
        }
      ],
      "name": "excludeFromReward",
      "outputs": [],
      "stateMutability": "nonpayable",
      "type": "function"
    },
    {
      "inputs": [
        {
          "internalType": "bytes32",
          "name": "role",
          "type": "bytes32"
        }
      ],
      "name": "getRoleAdmin",
      "outputs": [
        {
          "internalType": "bytes32",
          "name": "",
          "type": "bytes32"
        }
      ],
      "stateMutability": "view",
      "type": "function"
    },
    {
      "inputs": [
        {
          "internalType": "bytes32",
          "name": "role",
          "type": "bytes32"
        },
        {
          "internalType": "address",
          "name": "account",
          "type": "address"
        }
      ],
      "name": "grantRole",
      "outputs": [],
      "stateMutability": "nonpayable",
      "type": "function"
    },
    {
      "inputs": [
        {
          "internalType": "bytes32",
          "name": "role",
          "type": "bytes32"
        },
        {
          "internalType": "address",
          "name": "account",
          "type": "address"
        }
      ],
      "name": "hasRole",
      "outputs": [
        {
          "internalType": "bool",
          "name": "",
          "type": "bool"
        }
      ],
      "stateMutability": "view",
      "type": "function"
    },
    {
      "inputs": [
        {
          "internalType": "address",
          "name": "account",
          "type": "address"
        }
      ],
      "name": "includeInFee",
      "outputs": [],
      "stateMutability": "nonpayable",
      "type": "function"
    },
    {
      "inputs": [
        {
          "internalType": "address",
          "name": "account",
          "type": "address"
        }
      ],
      "name": "includeInReward",
      "outputs": [],
      "stateMutability": "nonpayable",
      "type": "function"
    },
    {
      "inputs": [
        {
          "internalType": "address",
          "name": "spender",
          "type": "address"
        },
        {
          "internalType": "uint256",
          "name": "addedValue",
          "type": "uint256"
        }
      ],
      "name": "increaseAllowance",
      "outputs": [
        {
          "internalType": "bool",
          "name": "",
          "type": "bool"
        }
      ],
      "stateMutability": "nonpayable",
      "type": "function"
    },
    {
      "inputs": [
        {
          "internalType": "string",
          "name": "__name",
          "type": "string"
        },
        {
          "internalType": "string",
          "name": "__symbol",
          "type": "string"
        },
        {
          "internalType": "uint8",
          "name": "__decimals",
          "type": "uint8"
        },
        {
          "internalType": "address",
          "name": "_pancakeV2RouterAddress",
          "type": "address"
        },
        {
          "internalType": "bool[6]",
          "name": "_bool_params",
          "type": "bool[6]"
        },
        {
          "internalType": "uint256[13]",
          "name": "_uint_params",
          "type": "uint256[13]"
        }
      ],
      "name": "initialize",
      "outputs": [],
      "stateMutability": "nonpayable",
      "type": "function"
    },
    {
      "inputs": [
        {
          "internalType": "address",
          "name": "account",
          "type": "address"
        }
      ],
      "name": "isExcludedFromFee",
      "outputs": [
        {
          "internalType": "bool",
          "name": "",
          "type": "bool"
        }
      ],
      "stateMutability": "view",
      "type": "function"
    },
    {
      "inputs": [
        {
          "internalType": "address",
          "name": "account",
          "type": "address"
        }
      ],
      "name": "isExcludedFromReward",
      "outputs": [
        {
          "internalType": "bool",
          "name": "",
          "type": "bool"
        }
      ],
      "stateMutability": "view",
      "type": "function"
    },
    {
      "inputs": [],
      "name": "limitsInEffect",
      "outputs": [
        {
          "internalType": "bool",
          "name": "",
          "type": "bool"
        }
      ],
      "stateMutability": "view",
      "type": "function"
    },
    {
      "inputs": [],
      "name": "liquidityActiveBlock",
      "outputs": [
        {
          "internalType": "uint256",
          "name": "",
          "type": "uint256"
        }
      ],
      "stateMutability": "view",
      "type": "function"
    },
    {
      "inputs": [],
      "name": "liquidityAddress",
      "outputs": [
        {
          "internalType": "address payable",
          "name": "",
          "type": "address"
        }
      ],
      "stateMutability": "view",
      "type": "function"
    },
    {
      "inputs": [],
      "name": "marketingAddress",
      "outputs": [
        {
          "internalType": "address payable",
          "name": "",
          "type": "address"
        }
      ],
      "stateMutability": "view",
      "type": "function"
    },
    {
      "inputs": [],
      "name": "maxTransactionAmount",
      "outputs": [
        {
          "internalType": "uint256",
          "name": "",
          "type": "uint256"
        }
      ],
      "stateMutability": "view",
      "type": "function"
    },
    {
      "inputs": [],
      "name": "maxWallet",
      "outputs": [
        {
          "internalType": "uint256",
          "name": "",
          "type": "uint256"
        }
      ],
      "stateMutability": "view",
      "type": "function"
    },
    {
      "inputs": [],
      "name": "minimumTokensBeforeSwap",
      "outputs": [
        {
          "internalType": "uint256",
          "name": "",
          "type": "uint256"
        }
      ],
      "stateMutability": "view",
      "type": "function"
    },
    {
      "inputs": [],
      "name": "minimumTokensBeforeSwapAmount",
      "outputs": [
        {
          "internalType": "uint256",
          "name": "",
          "type": "uint256"
        }
      ],
      "stateMutability": "view",
      "type": "function"
    },
    {
      "inputs": [],
      "name": "name",
      "outputs": [
        {
          "internalType": "string",
          "name": "",
          "type": "string"
        }
      ],
      "stateMutability": "view",
      "type": "function"
    },
    {
      "inputs": [],
      "name": "pancakePair",
      "outputs": [
        {
          "internalType": "address",
          "name": "",
          "type": "address"
        }
      ],
      "stateMutability": "view",
      "type": "function"
    },
    {
      "inputs": [],
      "name": "pancakeRouter",
      "outputs": [
        {
          "internalType": "contract IPancakeRouter02",
          "name": "",
          "type": "address"
        }
      ],
      "stateMutability": "view",
      "type": "function"
    },
    {
      "inputs": [
        {
          "internalType": "uint256",
          "name": "tAmount",
          "type": "uint256"
        },
        {
          "internalType": "bool",
          "name": "deductTransferFee",
          "type": "bool"
        }
      ],
      "name": "reflectionFromToken",
      "outputs": [
        {
          "internalType": "uint256",
          "name": "",
          "type": "uint256"
        }
      ],
      "stateMutability": "view",
      "type": "function"
    },
    {
      "inputs": [
        {
          "internalType": "address[]",
          "name": "_notbots",
          "type": "address[]"
        }
      ],
      "name": "removeBots",
      "outputs": [],
      "stateMutability": "nonpayable",
      "type": "function"
    },
    {
      "inputs": [],
      "name": "removeLimits",
      "outputs": [
        {
          "internalType": "bool",
          "name": "",
          "type": "bool"
        }
      ],
      "stateMutability": "nonpayable",
      "type": "function"
    },
    {
      "inputs": [
        {
          "internalType": "bytes32",
          "name": "role",
          "type": "bytes32"
        },
        {
          "internalType": "address",
          "name": "account",
          "type": "address"
        }
      ],
      "name": "renounceRole",
      "outputs": [],
      "stateMutability": "nonpayable",
      "type": "function"
    },
    {
      "inputs": [
        {
          "internalType": "bytes32",
          "name": "role",
          "type": "bytes32"
        },
        {
          "internalType": "address",
          "name": "account",
          "type": "address"
        }
      ],
      "name": "revokeRole",
      "outputs": [],
      "stateMutability": "nonpayable",
      "type": "function"
    },
    {
      "inputs": [
        {
          "internalType": "address",
          "name": "pair",
          "type": "address"
        },
        {
          "internalType": "bool",
          "name": "value",
          "type": "bool"
        }
      ],
      "name": "setAutomatedMarketMakerPair",
      "outputs": [],
      "stateMutability": "nonpayable",
      "type": "function"
    },
    {
      "inputs": [
        {
          "internalType": "uint256",
          "name": "buyTaxFee",
          "type": "uint256"
        },
        {
          "internalType": "uint256",
          "name": "buyLiquidityFee",
          "type": "uint256"
        },
        {
          "internalType": "uint256",
          "name": "buyMarketingFee",
          "type": "uint256"
        }
      ],
      "name": "setBuyFee",
      "outputs": [],
      "stateMutability": "nonpayable",
      "type": "function"
    },
    {
      "inputs": [
        {
          "internalType": "uint256",
          "name": "gas",
          "type": "uint256"
        }
      ],
      "name": "setGasPriceLimit",
      "outputs": [],
      "stateMutability": "nonpayable",
      "type": "function"
    },
    {
      "inputs": [
        {
          "internalType": "address",
          "name": "_liquidityAddress",
          "type": "address"
        }
      ],
      "name": "setLiquidityAddress",
      "outputs": [],
      "stateMutability": "nonpayable",
      "type": "function"
    },
    {
      "inputs": [
        {
          "internalType": "address",
          "name": "_marketingAddress",
          "type": "address"
        }
      ],
      "name": "setMarketingAddress",
      "outputs": [],
      "stateMutability": "nonpayable",
      "type": "function"
    },
    {
      "inputs": [
        {
          "internalType": "bool",
          "name": "antiGas",
          "type": "bool"
        }
      ],
      "name": "setProtectionSettings",
      "outputs": [],
      "stateMutability": "nonpayable",
      "type": "function"
    },
    {
      "inputs": [
        {
          "internalType": "uint256",
          "name": "sellTaxFee",
          "type": "uint256"
        },
        {
          "internalType": "uint256",
          "name": "sellLiquidityFee",
          "type": "uint256"
        },
        {
          "internalType": "uint256",
          "name": "sellMarketingFee",
          "type": "uint256"
        }
      ],
      "name": "setSellFee",
      "outputs": [],
      "stateMutability": "nonpayable",
      "type": "function"
    },
    {
      "inputs": [
        {
          "internalType": "bool",
          "name": "_enabled",
          "type": "bool"
        }
      ],
      "name": "setSwapAndLiquifyEnabled",
      "outputs": [],
      "stateMutability": "nonpayable",
      "type": "function"
    },
    {
      "inputs": [
        {
          "internalType": "bytes4",
          "name": "interfaceId",
          "type": "bytes4"
        }
      ],
      "name": "supportsInterface",
      "outputs": [
        {
          "internalType": "bool",
          "name": "",
          "type": "bool"
        }
      ],
      "stateMutability": "view",
      "type": "function"
    },
    {
      "inputs": [],
      "name": "swapAndLiquifyEnabled",
      "outputs": [
        {
          "internalType": "bool",
          "name": "",
          "type": "bool"
        }
      ],
      "stateMutability": "view",
      "type": "function"
    },
    {
      "inputs": [],
      "name": "swapEnabled",
      "outputs": [
        {
          "internalType": "bool",
          "name": "",
          "type": "bool"
        }
      ],
      "stateMutability": "view",
      "type": "function"
    },
    {
      "inputs": [],
      "name": "symbol",
      "outputs": [
        {
          "internalType": "string",
          "name": "",
          "type": "string"
        }
      ],
      "stateMutability": "view",
      "type": "function"
    },
    {
      "inputs": [
        {
          "internalType": "uint256",
          "name": "rAmount",
          "type": "uint256"
        }
      ],
      "name": "tokenFromReflection",
      "outputs": [
        {
          "internalType": "uint256",
          "name": "",
          "type": "uint256"
        }
      ],
      "stateMutability": "view",
      "type": "function"
    },
    {
      "inputs": [],
      "name": "totalFees",
      "outputs": [
        {
          "internalType": "uint256",
          "name": "",
          "type": "uint256"
        }
      ],
      "stateMutability": "view",
      "type": "function"
    },
    {
      "inputs": [],
      "name": "totalSupply",
      "outputs": [
        {
          "internalType": "uint256",
          "name": "",
          "type": "uint256"
        }
      ],
      "stateMutability": "view",
      "type": "function"
    },
    {
      "inputs": [],
      "name": "tradingActive",
      "outputs": [
        {
          "internalType": "bool",
          "name": "",
          "type": "bool"
        }
      ],
      "stateMutability": "view",
      "type": "function"
    },
    {
      "inputs": [],
      "name": "tradingActiveBlock",
      "outputs": [
        {
          "internalType": "uint256",
          "name": "",
          "type": "uint256"
        }
      ],
      "stateMutability": "view",
      "type": "function"
    },
    {
      "inputs": [
        {
          "internalType": "address",
          "name": "recipient",
          "type": "address"
        },
        {
          "internalType": "uint256",
          "name": "amount",
          "type": "uint256"
        }
      ],
      "name": "transfer",
      "outputs": [
        {
          "internalType": "bool",
          "name": "",
          "type": "bool"
        }
      ],
      "stateMutability": "nonpayable",
      "type": "function"
    },
    {
      "inputs": [],
      "name": "transferDelayEnabled",
      "outputs": [
        {
          "internalType": "bool",
          "name": "",
          "type": "bool"
        }
      ],
      "stateMutability": "view",
      "type": "function"
    },
    {
      "inputs": [
        {
          "internalType": "address",
          "name": "_token",
          "type": "address"
        },
        {
          "internalType": "address",
          "name": "_to",
          "type": "address"
        }
      ],
      "name": "transferForeignToken",
      "outputs": [
        {
          "internalType": "bool",
          "name": "_sent",
          "type": "bool"
        }
      ],
      "stateMutability": "nonpayable",
      "type": "function"
    },
    {
      "inputs": [
        {
          "internalType": "address",
          "name": "sender",
          "type": "address"
        },
        {
          "internalType": "address",
          "name": "recipient",
          "type": "address"
        },
        {
          "internalType": "uint256",
          "name": "amount",
          "type": "uint256"
        }
      ],
      "name": "transferFrom",
      "outputs": [
        {
          "internalType": "bool",
          "name": "",
          "type": "bool"
        }
      ],
      "stateMutability": "nonpayable",
      "type": "function"
    },
    {
      "stateMutability": "payable",
      "type": "receive"
    }
  ],
  "bytecode": "0x60806040523480156200001157600080fd5b5061888080620000226000396000f3fe6080604052600436106104095760003560e01c806388f8202011610213578063c21ebd0711610123578063d547741f116100ab578063ea2f0b371161007a578063ea2f0b371461100a578063ee40166e14611033578063efcc52de1461105e578063f8b45b0514611089578063fc155d1d146110b457610410565b8063d547741f14610f4e578063dc44b6a014610f77578063dd62ed3e14610fa2578063e884f26014610fdf57610410565b8063c876d0b9116100f2578063c876d0b914610e79578063c8c8ebe414610ea4578063d2d7ad8314610ecf578063d34628cc14610efa578063d539139314610f2357610410565b8063c21ebd0714610dcf578063c49b9a8014610dfa578063c5d2418914610e23578063c860795214610e4e57610410565b8063a073d37f116101a6578063a9059cbb11610175578063a9059cbb14610cc2578063b62496f514610cff578063b8c9d25c14610d3c578063bbc0c74214610d67578063bfd7928414610d9257610410565b8063a073d37f14610c04578063a217fddf14610c2f578063a457c2d714610c5a578063a5ece94114610c9757610410565b806395d89b41116101e257806395d89b4114610b5e5780639a7a23d614610b895780639a962ef714610bb2578063a0263c8914610bdb57610410565b806388f8202014610aa45780638a8c523c14610ae1578063906e9dd014610af857806391d1485414610b2157610410565b80633221c93f11610319578063525fa81f116102a157806370a082311161027057806370a08231146109ab578063751039fc146109e85780637571336a14610a135780638366e79a14610a3c57806388790a6814610a7957610410565b8063525fa81f146108f15780635342acb41461091a5780636c3bbfd7146109575780636ddd17131461098057610410565b8063437823ec116102e8578063437823ec1461080c5780634549b039146108355780634a62bb65146108725780634a74bb021461089d57806352390c02146108c857610410565b80633221c93f1461075257806336568abe1461077d5780633685d419146107a657806339509351146107cf57610410565b80631d865c301161039c578063248a9ca31161036b578063248a9ca31461065b57806325519cf2146106985780632d838119146106c15780632f2ff15d146106fe578063313ce5671461072757610410565b80631d865c30146105a1578063200a692d146105ca5780632307b441146105f557806323b872dd1461061e57610410565b80630f4432e3116103d85780630f4432e3146104e357806310d5de531461050e57806313114a9d1461054b57806318160ddd1461057657610410565b806301ffc9a71461041557806306fdde0314610452578063092316021461047d578063095ea7b3146104a657610410565b3661041057005b600080fd5b34801561042157600080fd5b5061043c600480360381019061043791906166ed565b6110dd565b6040516104499190616735565b60405180910390f35b34801561045e57600080fd5b50610467611157565b60405161047491906167e9565b60405180910390f35b34801561048957600080fd5b506104a4600480360381019061049f9190616841565b6111e9565b005b3480156104b257600080fd5b506104cd60048036038101906104c891906168cc565b611227565b6040516104da9190616735565b60405180910390f35b3480156104ef57600080fd5b506104f8611245565b604051610505919061691b565b60405180910390f35b34801561051a57600080fd5b5061053560048036038101906105309190616936565b61124b565b6040516105429190616735565b60405180910390f35b34801561055757600080fd5b5061056061126b565b60405161056d919061691b565b60405180910390f35b34801561058257600080fd5b5061058b611275565b604051610598919061691b565b60405180910390f35b3480156105ad57600080fd5b506105c860048036038101906105c39190616963565b61127f565b005b3480156105d657600080fd5b506105df61130f565b6040516105ec919061691b565b60405180910390f35b34801561060157600080fd5b5061061c60048036038101906106179190616bc1565b611315565b005b34801561062a57600080fd5b5061064560048036038101906106409190616c39565b6113f6565b6040516106529190616735565b60405180910390f35b34801561066757600080fd5b50610682600480360381019061067d9190616cc2565b6114cf565b60405161068f9190616cfe565b60405180910390f35b3480156106a457600080fd5b506106bf60048036038101906106ba9190616963565b6114ef565b005b3480156106cd57600080fd5b506106e860048036038101906106e39190616841565b61157f565b6040516106f5919061691b565b60405180910390f35b34801561070a57600080fd5b5061072560048036038101906107209190616d19565b6115ed565b005b34801561073357600080fd5b5061073c611616565b6040516107499190616d75565b60405180910390f35b34801561075e57600080fd5b5061076761162d565b6040516107749190616db1565b60405180910390f35b34801561078957600080fd5b506107a4600480360381019061079f9190616d19565b611653565b005b3480156107b257600080fd5b506107cd60048036038101906107c89190616936565b6116d6565b005b3480156107db57600080fd5b506107f660048036038101906107f191906168cc565b6119a6565b6040516108039190616735565b60405180910390f35b34801561081857600080fd5b50610833600480360381019061082e9190616936565b611a59565b005b34801561084157600080fd5b5061085c60048036038101906108579190616df8565b611aca565b604051610869919061691b565b60405180910390f35b34801561087e57600080fd5b50610887611b4e565b6040516108949190616735565b60405180910390f35b3480156108a957600080fd5b506108b2611b61565b6040516108bf9190616735565b60405180910390f35b3480156108d457600080fd5b506108ef60048036038101906108ea9190616936565b611b74565b005b3480156108fd57600080fd5b5061091860048036038101906109139190616936565b611dfe565b005b34801561092657600080fd5b50610941600480360381019061093c9190616936565b611ed2565b60405161094e9190616735565b60405180910390f35b34801561096357600080fd5b5061097e60048036038101906109799190616e38565b611f28565b005b34801561098c57600080fd5b5061099561200a565b6040516109a29190616735565b60405180910390f35b3480156109b757600080fd5b506109d260048036038101906109cd9190616936565b61201d565b6040516109df919061691b565b60405180910390f35b3480156109f457600080fd5b506109fd612108565b604051610a0a9190616735565b60405180910390f35b348015610a1f57600080fd5b50610a3a6004803603810190610a359190616e81565b612178565b005b348015610a4857600080fd5b50610a636004803603810190610a5e9190616ec1565b612237565b604051610a709190616735565b60405180910390f35b348015610a8557600080fd5b50610a8e6123c3565b604051610a9b919061691b565b60405180910390f35b348015610ab057600080fd5b50610acb6004803603810190610ac69190616936565b6123c9565b604051610ad89190616735565b60405180910390f35b348015610aed57600080fd5b50610af661241f565b005b348015610b0457600080fd5b50610b1f6004803603810190610b1a9190616936565b612474565b005b348015610b2d57600080fd5b50610b486004803603810190610b439190616d19565b612548565b604051610b559190616735565b60405180910390f35b348015610b6a57600080fd5b50610b736125b3565b604051610b8091906167e9565b60405180910390f35b348015610b9557600080fd5b50610bb06004803603810190610bab9190616e81565b612645565b005b348015610bbe57600080fd5b50610bd96004803603810190610bd49190617144565b6126fa565b005b348015610be757600080fd5b50610c026004803603810190610bfd919061720b565b613004565b005b348015610c1057600080fd5b50610c19613037565b604051610c26919061691b565b60405180910390f35b348015610c3b57600080fd5b50610c44613041565b604051610c519190616cfe565b60405180910390f35b348015610c6657600080fd5b50610c816004803603810190610c7c91906168cc565b613048565b604051610c8e9190616735565b60405180910390f35b348015610ca357600080fd5b50610cac613115565b604051610cb99190616db1565b60405180910390f35b348015610cce57600080fd5b50610ce96004803603810190610ce491906168cc565b61313b565b604051610cf69190616735565b60405180910390f35b348015610d0b57600080fd5b50610d266004803603810190610d219190616936565b613159565b604051610d339190616735565b60405180910390f35b348015610d4857600080fd5b50610d51613179565b604051610d5e9190617247565b60405180910390f35b348015610d7357600080fd5b50610d7c61319f565b604051610d899190616735565b60405180910390f35b348015610d9e57600080fd5b50610db96004803603810190610db49190616936565b6131b2565b604051610dc69190616735565b60405180910390f35b348015610ddb57600080fd5b50610de46131d2565b604051610df191906172c1565b60405180910390f35b348015610e0657600080fd5b50610e216004803603810190610e1c919061720b565b6131f8565b005b348015610e2f57600080fd5b50610e38613262565b604051610e45919061691b565b60405180910390f35b348015610e5a57600080fd5b50610e63613268565b604051610e70919061691b565b60405180910390f35b348015610e8557600080fd5b50610e8e61326e565b604051610e9b9190616735565b60405180910390f35b348015610eb057600080fd5b50610eb9613281565b604051610ec6919061691b565b60405180910390f35b348015610edb57600080fd5b50610ee4613287565b604051610ef1919061691b565b60405180910390f35b348015610f0657600080fd5b50610f216004803603810190610f1c9190616e38565b61328d565b005b348015610f2f57600080fd5b50610f3861336f565b604051610f459190616cfe565b60405180910390f35b348015610f5a57600080fd5b50610f756004803603810190610f709190616d19565b613393565b005b348015610f8357600080fd5b50610f8c6133bc565b604051610f99919061691b565b60405180910390f35b348015610fae57600080fd5b50610fc96004803603810190610fc49190616ec1565b6133c2565b604051610fd6919061691b565b60405180910390f35b348015610feb57600080fd5b50610ff4613449565b6040516110019190616735565b60405180910390f35b34801561101657600080fd5b50611031600480360381019061102c9190616936565b613483565b005b34801561103f57600080fd5b506110486134f4565b604051611055919061691b565b60405180910390f35b34801561106a57600080fd5b506110736134fa565b604051611080919061691b565b60405180910390f35b34801561109557600080fd5b5061109e613500565b6040516110ab919061691b565b60405180910390f35b3480156110c057600080fd5b506110db60048036038101906110d69190616841565b613506565b005b60007f7965db0b000000000000000000000000000000000000000000000000000000007bffffffffffffffffffffffffffffffffffffffffffffffffffffffff1916827bffffffffffffffffffffffffffffffffffffffffffffffffffffffff19161480611150575061114f82613733565b5b9050919050565b606060a480546111669061730b565b80601f01602080910402602001604051908101604052809291908181526020018280546111929061730b565b80156111df5780601f106111b4576101008083540402835291602001916111df565b820191906000526020600020905b8154815290600101906020018083116111c257829003601f168201915b5050505050905090565b6000801b6111fe816111f961379d565b6137a5565b61012c82101561120d57600080fd5b633b9aca008261121d919061736c565b60bb819055505050565b600061123b61123461379d565b8484613842565b6001905092915050565b60b25481565b60b56020528060005260406000206000915054906101000a900460ff1681565b600060a354905090565b600060a154905090565b6000801b6112948161128f61379d565b6137a5565b8360af819055508260b0819055508160b181905550601e60b15460b05460af546112be91906173c6565b6112c891906173c6565b1115611309576040517f08c379a000000000000000000000000000000000000000000000000000000000815260040161130090617468565b60405180910390fd5b50505050565b60af5481565b6000801b61132a8161132561379d565b6137a5565b815183511461136e576040517f08c379a0000000000000000000000000000000000000000000000000000000008152600401611365906174fa565b60405180910390fd5b611376613a0d565b600360a78190555060005b83518110156113e857600084828151811061139f5761139e61751a565b5b6020026020010151905060008483815181106113be576113bd61751a565b5b602002602001015190506113d3338383613a50565b505080806113e090617549565b915050611381565b506113f1613c8a565b505050565b6000611403848484613c9e565b6114c48461140f61379d565b6114bf856040518060600160405280602881526020016187fe60289139609d60008b73ffffffffffffffffffffffffffffffffffffffff1673ffffffffffffffffffffffffffffffffffffffff168152602001908152602001600020600061147561379d565b73ffffffffffffffffffffffffffffffffffffffff1673ffffffffffffffffffffffffffffffffffffffff168152602001908152602001600020546148fd9092919063ffffffff16565b613842565b600190509392505050565b600060656000838152602001908152602001600020600101549050919050565b6000801b611504816114ff61379d565b6137a5565b8360ac819055508260ad819055508160ae81905550601460ae5460ad5460ac5461152e91906173c6565b61153891906173c6565b1115611579576040517f08c379a0000000000000000000000000000000000000000000000000000000008152600401611570906175de565b60405180910390fd5b50505050565b600060a2548211156115c6576040517f08c379a00000000000000000000000000000000000000000000000000000000081526004016115bd90617670565b60405180910390fd5b60006115d0614952565b90506115e5818461497d90919063ffffffff16565b915050919050565b6115f6826114cf565b6116078161160261379d565b6137a5565b6116118383614993565b505050565b600060a660009054906101000a900460ff16905090565b609a60009054906101000a900473ffffffffffffffffffffffffffffffffffffffff1681565b61165b61379d565b73ffffffffffffffffffffffffffffffffffffffff168173ffffffffffffffffffffffffffffffffffffffff16146116c8576040517f08c379a00000000000000000000000000000000000000000000000000000000081526004016116bf90617702565b60405180910390fd5b6116d28282614a74565b5050565b6000801b6116eb816116e661379d565b6137a5565b609f60008373ffffffffffffffffffffffffffffffffffffffff1673ffffffffffffffffffffffffffffffffffffffff16815260200190815260200160002060009054906101000a900460ff16611777576040517f08c379a000000000000000000000000000000000000000000000000000000000815260040161176e9061776e565b60405180910390fd5b60005b60a0805490508110156119a1578273ffffffffffffffffffffffffffffffffffffffff1660a082815481106117b2576117b161751a565b5b9060005260206000200160009054906101000a900473ffffffffffffffffffffffffffffffffffffffff1673ffffffffffffffffffffffffffffffffffffffff16141561198e5760a0600160a08054905061180d919061778e565b8154811061181e5761181d61751a565b5b9060005260206000200160009054906101000a900473ffffffffffffffffffffffffffffffffffffffff1660a0828154811061185d5761185c61751a565b5b9060005260206000200160006101000a81548173ffffffffffffffffffffffffffffffffffffffff021916908373ffffffffffffffffffffffffffffffffffffffff1602179055506000609c60008573ffffffffffffffffffffffffffffffffffffffff1673ffffffffffffffffffffffffffffffffffffffff168152602001908152602001600020819055506000609f60008573ffffffffffffffffffffffffffffffffffffffff1673ffffffffffffffffffffffffffffffffffffffff16815260200190815260200160002060006101000a81548160ff02191690831515021790555060a0805480611954576119536177c2565b5b6001900381819060005260206000200160006101000a81549073ffffffffffffffffffffffffffffffffffffffff021916905590556119a1565b808061199990617549565b91505061177a565b505050565b6000611a4f6119b361379d565b84611a4a85609d60006119c461379d565b73ffffffffffffffffffffffffffffffffffffffff1673ffffffffffffffffffffffffffffffffffffffff16815260200190815260200160002060008973ffffffffffffffffffffffffffffffffffffffff1673ffffffffffffffffffffffffffffffffffffffff16815260200190815260200160002054614b5690919063ffffffff16565b613842565b6001905092915050565b6000801b611a6e81611a6961379d565b6137a5565b6001609e60008473ffffffffffffffffffffffffffffffffffffffff1673ffffffffffffffffffffffffffffffffffffffff16815260200190815260200160002060006101000a81548160ff0219169083151502179055505050565b600060a154831115611b11576040517f08c379a0000000000000000000000000000000000000000000000000000000008152600401611b089061783d565b60405180910390fd5b81611b31576000611b2184614b6c565b5050505050905080915050611b48565b6000611b3c84614b6c565b50505050915050809150505b92915050565b60b460009054906101000a900460ff1681565b60c160159054906101000a900460ff1681565b6000801b611b8981611b8461379d565b6137a5565b609f60008373ffffffffffffffffffffffffffffffffffffffff1673ffffffffffffffffffffffffffffffffffffffff16815260200190815260200160002060009054906101000a900460ff1615611c16576040517f08c379a0000000000000000000000000000000000000000000000000000000008152600401611c0d906178a9565b60405180910390fd5b6032600160a080549050611c2a91906173c6565b1115611c6b576040517f08c379a0000000000000000000000000000000000000000000000000000000008152600401611c6290617961565b60405180910390fd5b6000609b60008473ffffffffffffffffffffffffffffffffffffffff1673ffffffffffffffffffffffffffffffffffffffff168152602001908152602001600020541115611d3f57611cfb609b60008473ffffffffffffffffffffffffffffffffffffffff1673ffffffffffffffffffffffffffffffffffffffff1681526020019081526020016000205461157f565b609c60008473ffffffffffffffffffffffffffffffffffffffff1673ffffffffffffffffffffffffffffffffffffffff168152602001908152602001600020819055505b6001609f60008473ffffffffffffffffffffffffffffffffffffffff1673ffffffffffffffffffffffffffffffffffffffff16815260200190815260200160002060006101000a81548160ff02191690831515021790555060a0829080600181540180825580915050600190039060005260206000200160009091909190916101000a81548173ffffffffffffffffffffffffffffffffffffffff021916908373ffffffffffffffffffffffffffffffffffffffff1602179055505050565b6000801b611e1381611e0e61379d565b6137a5565b81609a60006101000a81548173ffffffffffffffffffffffffffffffffffffffff021916908373ffffffffffffffffffffffffffffffffffffffff1602179055506001609e6000609a60009054906101000a900473ffffffffffffffffffffffffffffffffffffffff1673ffffffffffffffffffffffffffffffffffffffff1673ffffffffffffffffffffffffffffffffffffffff16815260200190815260200160002060006101000a81548160ff0219169083151502179055505050565b6000609e60008373ffffffffffffffffffffffffffffffffffffffff1673ffffffffffffffffffffffffffffffffffffffff16815260200190815260200160002060009054906101000a900460ff169050919050565b6000801b611f3d81611f3861379d565b6137a5565b60005b8251811015611fce57600060996000858481518110611f6257611f6161751a565b5b602002602001015173ffffffffffffffffffffffffffffffffffffffff1673ffffffffffffffffffffffffffffffffffffffff16815260200190815260200160002060006101000a81548160ff0219169083151502179055508080611fc690617549565b915050611f40565b507f529808c27b161661ee15f7b2de5d7b53e4ea3ea195d3da0596410919325fe7ca82604051611ffe9190617a3f565b60405180910390a15050565b60b460029054906101000a900460ff1681565b6000609f60008373ffffffffffffffffffffffffffffffffffffffff1673ffffffffffffffffffffffffffffffffffffffff16815260200190815260200160002060009054906101000a900460ff16156120b857609c60008373ffffffffffffffffffffffffffffffffffffffff1673ffffffffffffffffffffffffffffffffffffffff168152602001908152602001600020549050612103565b612100609b60008473ffffffffffffffffffffffffffffffffffffffff1673ffffffffffffffffffffffffffffffffffffffff1681526020019081526020016000205461157f565b90505b919050565b60008060001b61211f8161211a61379d565b6137a5565b600060b460006101000a81548160ff021916908315150217905550600060ba60006101000a81548160ff021916908315150217905550600060b760006101000a81548160ff021916908315150217905550600191505090565b6000801b61218d8161218861379d565b6137a5565b8160b560008573ffffffffffffffffffffffffffffffffffffffff1673ffffffffffffffffffffffffffffffffffffffff16815260200190815260200160002060006101000a81548160ff0219169083151502179055508273ffffffffffffffffffffffffffffffffffffffff167f575f9d01836c9206322151b9e9ec3f2b77b87e71176933b9b44d2d732f768d958360405161222a9190616735565b60405180910390a2505050565b60008060001b61224e8161224961379d565b6137a5565b3073ffffffffffffffffffffffffffffffffffffffff168473ffffffffffffffffffffffffffffffffffffffff1614156122bd576040517f08c379a00000000000000000000000000000000000000000000000000000000081526004016122b490617aad565b60405180910390fd5b60008473ffffffffffffffffffffffffffffffffffffffff166370a08231306040518263ffffffff1660e01b81526004016122f89190617247565b602060405180830381865afa158015612315573d6000803e3d6000fd5b505050506040513d601f19601f820116820180604052508101906123399190617ae2565b90508473ffffffffffffffffffffffffffffffffffffffff1663a9059cbb85836040518363ffffffff1660e01b8152600401612376929190617b0f565b6020604051808303816000875af1158015612395573d6000803e3d6000fd5b505050506040513d601f19601f820116820180604052508101906123b99190617b4d565b9250505092915050565b60b05481565b6000609f60008373ffffffffffffffffffffffffffffffffffffffff1673ffffffffffffffffffffffffffffffffffffffff16815260200190815260200160002060009054906101000a900460ff169050919050565b6000801b6124348161242f61379d565b6137a5565b600160b460016101000a81548160ff021916908315150217905550600160c160156101000a81548160ff0219169083151502179055504360b38190555050565b6000801b6124898161248461379d565b6137a5565b81609860006101000a81548173ffffffffffffffffffffffffffffffffffffffff021916908373ffffffffffffffffffffffffffffffffffffffff1602179055506001609e6000609860009054906101000a900473ffffffffffffffffffffffffffffffffffffffff1673ffffffffffffffffffffffffffffffffffffffff1673ffffffffffffffffffffffffffffffffffffffff16815260200190815260200160002060006101000a81548160ff0219169083151502179055505050565b60006065600084815260200190815260200160002060000160008373ffffffffffffffffffffffffffffffffffffffff1673ffffffffffffffffffffffffffffffffffffffff16815260200190815260200160002060009054906101000a900460ff16905092915050565b606060a580546125c29061730b565b80601f01602080910402602001604051908101604052809291908181526020018280546125ee9061730b565b801561263b5780601f106126105761010080835404028352916020019161263b565b820191906000526020600020905b81548152906001019060200180831161261e57829003601f168201915b5050505050905090565b6000801b61265a8161265561379d565b6137a5565b60c160009054906101000a900473ffffffffffffffffffffffffffffffffffffffff1673ffffffffffffffffffffffffffffffffffffffff168373ffffffffffffffffffffffffffffffffffffffff1614156126eb576040517f08c379a00000000000000000000000000000000000000000000000000000000081526004016126e290617bec565b60405180910390fd5b6126f58383614bc8565b505050565b600060019054906101000a900460ff166127225760008054906101000a900460ff161561272b565b61272a614c4c565b5b61276a576040517f08c379a000000000000000000000000000000000000000000000000000000000815260040161276190617c7e565b60405180910390fd5b60008060019054906101000a900460ff1615905080156127ba576001600060016101000a81548160ff02191690831515021790555060016000806101000a81548160ff0219169083151502179055505b8660a490805190602001906127d09291906165de565b508560a590805190602001906127e79291906165de565b508460a660006101000a81548160ff021916908360ff16021790555061280b614c5d565b61281f6000801b61281a61379d565b614cc6565b33609760006101000a81548173ffffffffffffffffffffffffffffffffffffffff021916908373ffffffffffffffffffffffffffffffffffffffff160217905550816000600d81106128745761287361751a565b5b602002015160a18190555060a15460001961288f9190617ccd565b60001961289c919061778e565b60a28190555060a254609b60006128b161379d565b73ffffffffffffffffffffffffffffffffffffffff1673ffffffffffffffffffffffffffffffffffffffff16815260200190815260200160002081905550816001600d81106129035761290261751a565b5b602002015160be81905550816002600d81106129225761292161751a565b5b602002015160bd81905550816003600d81106129415761294061751a565b5b602002015160bf81905550816004600d81106129605761295f61751a565b5b602002015160ac81905550816005600d811061297f5761297e61751a565b5b602002015160ad81905550816006600d811061299e5761299d61751a565b5b602002015160ae81905550816007600d81106129bd576129bc61751a565b5b602002015160af81905550816008600d81106129dc576129db61751a565b5b602002015160b081905550816009600d81106129fb576129fa61751a565b5b602002015160b18190555081600a600d8110612a1a57612a1961751a565b5b602002015160b28190555081600b600d8110612a3957612a3861751a565b5b602002015160b38190555082600060068110612a5857612a5761751a565b5b602002015160b460006101000a81548160ff02191690831515021790555082600160068110612a8a57612a8961751a565b5b602002015160b460016101000a81548160ff02191690831515021790555082600260068110612abc57612abb61751a565b5b602002015160b460026101000a81548160ff02191690831515021790555082600360068110612aee57612aed61751a565b5b602002015160b760006101000a81548160ff02191690831515021790555082600460068110612b2057612b1f61751a565b5b602002015160ba60006101000a81548160ff02191690831515021790555081600c600d8110612b5257612b5161751a565b5b602002015160bb8190555082600560068110612b7157612b7061751a565b5b602002015160c160156101000a81548160ff021916908315150217905550600084905060008173ffffffffffffffffffffffffffffffffffffffff1663c45a01556040518163ffffffff1660e01b8152600401602060405180830381865afa158015612be1573d6000803e3d6000fd5b505050506040513d601f19601f82011682018060405250810190612c059190617d13565b73ffffffffffffffffffffffffffffffffffffffff1663c9c65396308473ffffffffffffffffffffffffffffffffffffffff1663ad5c46486040518163ffffffff1660e01b8152600401602060405180830381865afa158015612c6c573d6000803e3d6000fd5b505050506040513d601f19601f82011682018060405250810190612c909190617d13565b6040518363ffffffff1660e01b8152600401612cad929190617d40565b6020604051808303816000875af1158015612ccc573d6000803e3d6000fd5b505050506040513d601f19601f82011682018060405250810190612cf09190617d13565b90508160c060006101000a81548173ffffffffffffffffffffffffffffffffffffffff021916908373ffffffffffffffffffffffffffffffffffffffff1602179055508060c160006101000a81548173ffffffffffffffffffffffffffffffffffffffff021916908373ffffffffffffffffffffffffffffffffffffffff16021790555033609860006101000a81548173ffffffffffffffffffffffffffffffffffffffff021916908373ffffffffffffffffffffffffffffffffffffffff16021790555061dead609a60006101000a81548173ffffffffffffffffffffffffffffffffffffffff021916908373ffffffffffffffffffffffffffffffffffffffff160217905550612e03816001614bc8565b6001609e6000612e1161379d565b73ffffffffffffffffffffffffffffffffffffffff1673ffffffffffffffffffffffffffffffffffffffff16815260200190815260200160002060006101000a81548160ff0219169083151502179055506001609e60003073ffffffffffffffffffffffffffffffffffffffff1673ffffffffffffffffffffffffffffffffffffffff16815260200190815260200160002060006101000a81548160ff0219169083151502179055506001609e6000609a60009054906101000a900473ffffffffffffffffffffffffffffffffffffffff1673ffffffffffffffffffffffffffffffffffffffff1673ffffffffffffffffffffffffffffffffffffffff16815260200190815260200160002060006101000a81548160ff021916908315150217905550612f46612f3f61379d565b6001612178565b612f51306001612178565b612f5c826001612178565b612f6961dead6001612178565b612f7161379d565b73ffffffffffffffffffffffffffffffffffffffff16600073ffffffffffffffffffffffffffffffffffffffff167fddf252ad1be2c89b69c2b068fc378daa952ba7f163c4a11628f55a4df523b3ef60a154604051612fd0919061691b565b60405180910390a350508015612ffb5760008060016101000a81548160ff0219169083151502179055505b50505050505050565b6000801b6130198161301461379d565b6137a5565b8160ba60006101000a81548160ff0219169083151502179055505050565b600060bd54905090565b6000801b81565b600061310b61305561379d565b846131068560405180606001604052806025815260200161882660259139609d600061307f61379d565b73ffffffffffffffffffffffffffffffffffffffff1673ffffffffffffffffffffffffffffffffffffffff16815260200190815260200160002060008a73ffffffffffffffffffffffffffffffffffffffff1673ffffffffffffffffffffffffffffffffffffffff168152602001908152602001600020546148fd9092919063ffffffff16565b613842565b6001905092915050565b609860009054906101000a900473ffffffffffffffffffffffffffffffffffffffff1681565b600061314f61314861379d565b8484613c9e565b6001905092915050565b60bc6020528060005260406000206000915054906101000a900460ff1681565b60c160009054906101000a900473ffffffffffffffffffffffffffffffffffffffff1681565b60b460019054906101000a900460ff1681565b60996020528060005260406000206000915054906101000a900460ff1681565b60c060009054906101000a900473ffffffffffffffffffffffffffffffffffffffff1681565b6000801b61320d8161320861379d565b6137a5565b8160c160156101000a81548160ff0219169083151502179055507f53726dfcaf90650aa7eb35524f4d3220f07413c8d6cb404cc8c18bf5591bc159826040516132569190616735565b60405180910390a15050565b60ae5481565b60b15481565b60b760009054906101000a900460ff1681565b60be5481565b60bd5481565b6000801b6132a28161329d61379d565b6137a5565b60005b8251811015613333576001609960008584815181106132c7576132c661751a565b5b602002602001015173ffffffffffffffffffffffffffffffffffffffff1673ffffffffffffffffffffffffffffffffffffffff16815260200190815260200160002060006101000a81548160ff021916908315150217905550808061332b90617549565b9150506132a5565b507fa4ac3c83141dcea933aed56cecb4b8cb18817b991e36d5956d4058bdfdf5ee93826040516133639190617a3f565b60405180910390a15050565b7f9f2df0fed2c77648de5860a4cc508cd0818c85b8b8a1ab4ceeef8d981c8956a681565b61339c826114cf565b6133ad816133a861379d565b6137a5565b6133b78383614a74565b505050565b60ad5481565b6000609d60008473ffffffffffffffffffffffffffffffffffffffff1673ffffffffffffffffffffffffffffffffffffffff16815260200190815260200160002060008373ffffffffffffffffffffffffffffffffffffffff1673ffffffffffffffffffffffffffffffffffffffff16815260200190815260200160002054905092915050565b60008060001b6134608161345b61379d565b6137a5565b600060b760006101000a81548160ff021916908315150217905550600191505090565b6000801b6134988161349361379d565b6137a5565b6000609e60008473ffffffffffffffffffffffffffffffffffffffff1673ffffffffffffffffffffffffffffffffffffffff16815260200190815260200160002060006101000a81548160ff0219169083151502179055505050565b60b35481565b60ac5481565b60bf5481565b6000801b61351b8161351661379d565b6137a5565b6000600267ffffffffffffffff811115613538576135376169bb565b5b6040519080825280602002602001820160405280156135665781602001602082028036833780820191505090505b50905060c060009054906101000a900473ffffffffffffffffffffffffffffffffffffffff1673ffffffffffffffffffffffffffffffffffffffff1663ad5c46486040518163ffffffff1660e01b8152600401602060405180830381865afa1580156135d6573d6000803e3d6000fd5b505050506040513d601f19601f820116820180604052508101906135fa9190617d13565b8160008151811061360e5761360d61751a565b5b602002602001019073ffffffffffffffffffffffffffffffffffffffff16908173ffffffffffffffffffffffffffffffffffffffff1681525050308160018151811061365d5761365c61751a565b5b602002602001019073ffffffffffffffffffffffffffffffffffffffff16908173ffffffffffffffffffffffffffffffffffffffff168152505060c060009054906101000a900473ffffffffffffffffffffffffffffffffffffffff1673ffffffffffffffffffffffffffffffffffffffff1663b6f9de958460008461dead426040518663ffffffff1660e01b81526004016136fc9493929190617da4565b6000604051808303818588803b15801561371557600080fd5b505af1158015613729573d6000803e3d6000fd5b5050505050505050565b60007f01ffc9a7000000000000000000000000000000000000000000000000000000007bffffffffffffffffffffffffffffffffffffffffffffffffffffffff1916827bffffffffffffffffffffffffffffffffffffffffffffffffffffffff1916149050919050565b600033905090565b6137af8282612548565b61383e576137d48173ffffffffffffffffffffffffffffffffffffffff166014614cd4565b6137e28360001c6020614cd4565b6040516020016137f3929190617ec4565b6040516020818303038152906040526040517f08c379a000000000000000000000000000000000000000000000000000000000815260040161383591906167e9565b60405180910390fd5b5050565b600073ffffffffffffffffffffffffffffffffffffffff168373ffffffffffffffffffffffffffffffffffffffff1614156138b2576040517f08c379a00000000000000000000000000000000000000000000000000000000081526004016138a990617f70565b60405180910390fd5b600073ffffffffffffffffffffffffffffffffffffffff168273ffffffffffffffffffffffffffffffffffffffff161415613922576040517f08c379a000000000000000000000000000000000000000000000000000000000815260040161391990618002565b60405180910390fd5b80609d60008573ffffffffffffffffffffffffffffffffffffffff1673ffffffffffffffffffffffffffffffffffffffff16815260200190815260200160002060008473ffffffffffffffffffffffffffffffffffffffff1673ffffffffffffffffffffffffffffffffffffffff168152602001908152602001600020819055508173ffffffffffffffffffffffffffffffffffffffff168373ffffffffffffffffffffffffffffffffffffffff167f8c5be1e5ebec7d5bd14f71427d1e84f3dd0314c0f7b2291e5b200ac8c7c3b92583604051613a00919061691b565b60405180910390a3505050565b600060a854148015613a215750600060aa54145b15613a2b57613a4e565b60a85460a98190555060aa5460ab81905550600060a881905550600060aa819055505b565b609f60008473ffffffffffffffffffffffffffffffffffffffff1673ffffffffffffffffffffffffffffffffffffffff16815260200190815260200160002060009054906101000a900460ff168015613af35750609f60008373ffffffffffffffffffffffffffffffffffffffff1673ffffffffffffffffffffffffffffffffffffffff16815260200190815260200160002060009054906101000a900460ff16155b15613b0857613b03838383614f10565b613c85565b609f60008473ffffffffffffffffffffffffffffffffffffffff1673ffffffffffffffffffffffffffffffffffffffff16815260200190815260200160002060009054906101000a900460ff16158015613bab5750609f60008373ffffffffffffffffffffffffffffffffffffffff1673ffffffffffffffffffffffffffffffffffffffff16815260200190815260200160002060009054906101000a900460ff165b15613bc057613bbb838383615170565b613c84565b609f60008473ffffffffffffffffffffffffffffffffffffffff1673ffffffffffffffffffffffffffffffffffffffff16815260200190815260200160002060009054906101000a900460ff168015613c625750609f60008373ffffffffffffffffffffffffffffffffffffffff1673ffffffffffffffffffffffffffffffffffffffff16815260200190815260200160002060009054906101000a900460ff165b15613c7757613c728383836153d0565b613c83565b613c828383836156c5565b5b5b5b505050565b60a95460a88190555060ab5460aa81905550565b600073ffffffffffffffffffffffffffffffffffffffff168373ffffffffffffffffffffffffffffffffffffffff161415613d0e576040517f08c379a0000000000000000000000000000000000000000000000000000000008152600401613d0590618094565b60405180910390fd5b600073ffffffffffffffffffffffffffffffffffffffff168273ffffffffffffffffffffffffffffffffffffffff161415613d7e576040517f08c379a0000000000000000000000000000000000000000000000000000000008152600401613d7590618126565b60405180910390fd5b60008111613dc1576040517f08c379a0000000000000000000000000000000000000000000000000000000008152600401613db8906181b8565b60405180910390fd5b609960008473ffffffffffffffffffffffffffffffffffffffff1673ffffffffffffffffffffffffffffffffffffffff16815260200190815260200160002060009054906101000a900460ff16158015613e655750609960008373ffffffffffffffffffffffffffffffffffffffff1673ffffffffffffffffffffffffffffffffffffffff16815260200190815260200160002060009054906101000a900460ff16155b613e6e57600080fd5b60b460019054906101000a900460ff16613f6357609e60008473ffffffffffffffffffffffffffffffffffffffff1673ffffffffffffffffffffffffffffffffffffffff16815260200190815260200160002060009054906101000a900460ff1680613f235750609e60008373ffffffffffffffffffffffffffffffffffffffff1673ffffffffffffffffffffffffffffffffffffffff16815260200190815260200160002060009054906101000a900460ff165b613f62576040517f08c379a0000000000000000000000000000000000000000000000000000000008152600401613f5990618224565b60405180910390fd5b5b60b460009054906101000a900460ff161561463657609760009054906101000a900473ffffffffffffffffffffffffffffffffffffffff1673ffffffffffffffffffffffffffffffffffffffff168373ffffffffffffffffffffffffffffffffffffffff16141580156140245750609760009054906101000a900473ffffffffffffffffffffffffffffffffffffffff1673ffffffffffffffffffffffffffffffffffffffff168273ffffffffffffffffffffffffffffffffffffffff1614155b801561405d5750600073ffffffffffffffffffffffffffffffffffffffff168273ffffffffffffffffffffffffffffffffffffffff1614155b8015614097575061dead73ffffffffffffffffffffffffffffffffffffffff168273ffffffffffffffffffffffffffffffffffffffff1614155b80156140b0575060c160149054906101000a900460ff16155b156146355760ba60009054906101000a900460ff16801561411a575060bc60008473ffffffffffffffffffffffffffffffffffffffff1673ffffffffffffffffffffffffffffffffffffffff16815260200190815260200160002060009054906101000a900460ff165b156141655760bb543a1115614164576040517f08c379a000000000000000000000000000000000000000000000000000000000815260040161415b90618290565b60405180910390fd5b5b60b760009054906101000a900460ff161561434c57609760009054906101000a900473ffffffffffffffffffffffffffffffffffffffff1673ffffffffffffffffffffffffffffffffffffffff168273ffffffffffffffffffffffffffffffffffffffff1614158015614226575060c060009054906101000a900473ffffffffffffffffffffffffffffffffffffffff1673ffffffffffffffffffffffffffffffffffffffff168273ffffffffffffffffffffffffffffffffffffffff1614155b8015614280575060c160009054906101000a900473ffffffffffffffffffffffffffffffffffffffff1673ffffffffffffffffffffffffffffffffffffffff168273ffffffffffffffffffffffffffffffffffffffff1614155b1561434b574360b660003273ffffffffffffffffffffffffffffffffffffffff1673ffffffffffffffffffffffffffffffffffffffff1681526020019081526020016000205410614306576040517f08c379a00000000000000000000000000000000000000000000000000000000081526004016142fd90618348565b60405180910390fd5b4360b660003273ffffffffffffffffffffffffffffffffffffffff1673ffffffffffffffffffffffffffffffffffffffff168152602001908152602001600020819055505b5b60bc60008473ffffffffffffffffffffffffffffffffffffffff1673ffffffffffffffffffffffffffffffffffffffff16815260200190815260200160002060009054906101000a900460ff1680156143ef575060b560008373ffffffffffffffffffffffffffffffffffffffff1673ffffffffffffffffffffffffffffffffffffffff16815260200190815260200160002060009054906101000a900460ff16155b156144965760be54811115614439576040517f08c379a0000000000000000000000000000000000000000000000000000000008152600401614430906183da565b60405180910390fd5b60bf546144458361201d565b8261445091906173c6565b1115614491576040517f08c379a000000000000000000000000000000000000000000000000000000000815260040161448890618446565b60405180910390fd5b614634565b60bc60008373ffffffffffffffffffffffffffffffffffffffff1673ffffffffffffffffffffffffffffffffffffffff16815260200190815260200160002060009054906101000a900460ff168015614539575060b560008473ffffffffffffffffffffffffffffffffffffffff1673ffffffffffffffffffffffffffffffffffffffff16815260200190815260200160002060009054906101000a900460ff16155b156145885760be54811115614583576040517f08c379a000000000000000000000000000000000000000000000000000000000815260040161457a906184d8565b60405180910390fd5b614633565b60b560008373ffffffffffffffffffffffffffffffffffffffff1673ffffffffffffffffffffffffffffffffffffffff16815260200190815260200160002060009054906101000a900460ff166146325760bf546145e58361201d565b826145f091906173c6565b1115614631576040517f08c379a000000000000000000000000000000000000000000000000000000000815260040161462890618446565b60405180910390fd5b5b5b5b5b5b60006146413061201d565b9050600060bd54821015905060c160149054906101000a900460ff16158015614676575060c160159054906101000a900460ff165b80156146ac575060006146aa60c160009054906101000a900473ffffffffffffffffffffffffffffffffffffffff1661201d565b115b80156146b55750805b801561470a575060bc60008573ffffffffffffffffffffffffffffffffffffffff1673ffffffffffffffffffffffffffffffffffffffff16815260200190815260200160002060009054906101000a900460ff165b1561471857614717615890565b5b614720613a0d565b600360a781905550609e60008673ffffffffffffffffffffffffffffffffffffffff1673ffffffffffffffffffffffffffffffffffffffff16815260200190815260200160002060009054906101000a900460ff161580156147cc5750609e60008573ffffffffffffffffffffffffffffffffffffffff1673ffffffffffffffffffffffffffffffffffffffff16815260200190815260200160002060009054906101000a900460ff16155b156148e35760bc60008673ffffffffffffffffffffffffffffffffffffffff1673ffffffffffffffffffffffffffffffffffffffff16815260200190815260200160002060009054906101000a900460ff161561485b5760ac5460a88190555060ae5460ad5461483c91906173c6565b60aa81905550600060aa54111561485657600160a7819055505b6148e2565b60bc60008573ffffffffffffffffffffffffffffffffffffffff1673ffffffffffffffffffffffffffffffffffffffff16815260200190815260200160002060009054906101000a900460ff16156148e15760af5460a88190555060b15460b0546148c691906173c6565b60aa81905550600060aa5411156148e057600260a7819055505b5b5b5b6148ee858585613a50565b6148f6613c8a565b5050505050565b6000838311158290614945576040517f08c379a000000000000000000000000000000000000000000000000000000000815260040161493c91906167e9565b60405180910390fd5b5082840390509392505050565b600080600061495f615aa9565b91509150614976818361497d90919063ffffffff16565b9250505090565b6000818361498b91906184f8565b905092915050565b61499d8282612548565b614a705760016065600084815260200190815260200160002060000160008373ffffffffffffffffffffffffffffffffffffffff1673ffffffffffffffffffffffffffffffffffffffff16815260200190815260200160002060006101000a81548160ff021916908315150217905550614a1561379d565b73ffffffffffffffffffffffffffffffffffffffff168173ffffffffffffffffffffffffffffffffffffffff16837f2f8788117e7eff1d82e926ec794901d17c78024a50270940304540a733656f0d60405160405180910390a45b5050565b614a7e8282612548565b15614b525760006065600084815260200190815260200160002060000160008373ffffffffffffffffffffffffffffffffffffffff1673ffffffffffffffffffffffffffffffffffffffff16815260200190815260200160002060006101000a81548160ff021916908315150217905550614af761379d565b73ffffffffffffffffffffffffffffffffffffffff168173ffffffffffffffffffffffffffffffffffffffff16837ff6391f5c32d9c69d2a47ea670b442974b53935d1edc7fd64eb21e047a839171b60405160405180910390a45b5050565b60008183614b6491906173c6565b905092915050565b6000806000806000806000806000614b838a615d5c565b9250925092506000806000614ba18d8686614b9c614952565b615db6565b9250925092508282828888889b509b509b509b509b509b5050505050505091939550919395565b8060bc60008473ffffffffffffffffffffffffffffffffffffffff1673ffffffffffffffffffffffffffffffffffffffff16815260200190815260200160002060006101000a81548160ff021916908315150217905550614c298282612178565b8015614c3957614c3882611b74565b5b80614c4857614c47826116d6565b5b5050565b6000614c5730615e3f565b15905090565b600060019054906101000a900460ff16614cac576040517f08c379a0000000000000000000000000000000000000000000000000000000008152600401614ca39061859b565b60405180910390fd5b614cb4615e52565b614cbc615ea3565b614cc4615ef4565b565b614cd08282614993565b5050565b606060006002836002614ce7919061736c565b614cf191906173c6565b67ffffffffffffffff811115614d0a57614d096169bb565b5b6040519080825280601f01601f191660200182016040528015614d3c5781602001600182028036833780820191505090505b5090507f300000000000000000000000000000000000000000000000000000000000000081600081518110614d7457614d7361751a565b5b60200101907effffffffffffffffffffffffffffffffffffffffffffffffffffffffffffff1916908160001a9053507f780000000000000000000000000000000000000000000000000000000000000081600181518110614dd857614dd761751a565b5b60200101907effffffffffffffffffffffffffffffffffffffffffffffffffffffffffffff1916908160001a90535060006001846002614e18919061736c565b614e2291906173c6565b90505b6001811115614ec2577f3031323334353637383961626364656600000000000000000000000000000000600f861660108110614e6457614e6361751a565b5b1a60f81b828281518110614e7b57614e7a61751a565b5b60200101907effffffffffffffffffffffffffffffffffffffffffffffffffffffffffffff1916908160001a905350600485901c945080614ebb906185bb565b9050614e25565b5060008414614f06576040517f08c379a0000000000000000000000000000000000000000000000000000000008152600401614efd90618631565b60405180910390fd5b8091505092915050565b600080600080600080614f2287614b6c565b955095509550955095509550614f8087609c60008c73ffffffffffffffffffffffffffffffffffffffff1673ffffffffffffffffffffffffffffffffffffffff16815260200190815260200160002054615f4590919063ffffffff16565b609c60008b73ffffffffffffffffffffffffffffffffffffffff1673ffffffffffffffffffffffffffffffffffffffff1681526020019081526020016000208190555061501586609b60008c73ffffffffffffffffffffffffffffffffffffffff1673ffffffffffffffffffffffffffffffffffffffff16815260200190815260200160002054615f4590919063ffffffff16565b609b60008b73ffffffffffffffffffffffffffffffffffffffff1673ffffffffffffffffffffffffffffffffffffffff168152602001908152602001600020819055506150aa85609b60008b73ffffffffffffffffffffffffffffffffffffffff1673ffffffffffffffffffffffffffffffffffffffff16815260200190815260200160002054614b5690919063ffffffff16565b609b60008a73ffffffffffffffffffffffffffffffffffffffff1673ffffffffffffffffffffffffffffffffffffffff168152602001908152602001600020819055506150f681615f5b565b61510084836161e9565b8773ffffffffffffffffffffffffffffffffffffffff168973ffffffffffffffffffffffffffffffffffffffff167fddf252ad1be2c89b69c2b068fc378daa952ba7f163c4a11628f55a4df523b3ef8560405161515d919061691b565b60405180910390a3505050505050505050565b60008060008060008061518287614b6c565b9550955095509550955095506151e086609b60008c73ffffffffffffffffffffffffffffffffffffffff1673ffffffffffffffffffffffffffffffffffffffff16815260200190815260200160002054615f4590919063ffffffff16565b609b60008b73ffffffffffffffffffffffffffffffffffffffff1673ffffffffffffffffffffffffffffffffffffffff1681526020019081526020016000208190555061527583609c60008b73ffffffffffffffffffffffffffffffffffffffff1673ffffffffffffffffffffffffffffffffffffffff16815260200190815260200160002054614b5690919063ffffffff16565b609c60008a73ffffffffffffffffffffffffffffffffffffffff1673ffffffffffffffffffffffffffffffffffffffff1681526020019081526020016000208190555061530a85609b60008b73ffffffffffffffffffffffffffffffffffffffff1673ffffffffffffffffffffffffffffffffffffffff16815260200190815260200160002054614b5690919063ffffffff16565b609b60008a73ffffffffffffffffffffffffffffffffffffffff1673ffffffffffffffffffffffffffffffffffffffff1681526020019081526020016000208190555061535681615f5b565b61536084836161e9565b8773ffffffffffffffffffffffffffffffffffffffff168973ffffffffffffffffffffffffffffffffffffffff167fddf252ad1be2c89b69c2b068fc378daa952ba7f163c4a11628f55a4df523b3ef856040516153bd919061691b565b60405180910390a3505050505050505050565b6000806000806000806153e287614b6c565b95509550955095509550955061544087609c60008c73ffffffffffffffffffffffffffffffffffffffff1673ffffffffffffffffffffffffffffffffffffffff16815260200190815260200160002054615f4590919063ffffffff16565b609c60008b73ffffffffffffffffffffffffffffffffffffffff1673ffffffffffffffffffffffffffffffffffffffff168152602001908152602001600020819055506154d586609b60008c73ffffffffffffffffffffffffffffffffffffffff1673ffffffffffffffffffffffffffffffffffffffff16815260200190815260200160002054615f4590919063ffffffff16565b609b60008b73ffffffffffffffffffffffffffffffffffffffff1673ffffffffffffffffffffffffffffffffffffffff1681526020019081526020016000208190555061556a83609c60008b73ffffffffffffffffffffffffffffffffffffffff1673ffffffffffffffffffffffffffffffffffffffff16815260200190815260200160002054614b5690919063ffffffff16565b609c60008a73ffffffffffffffffffffffffffffffffffffffff1673ffffffffffffffffffffffffffffffffffffffff168152602001908152602001600020819055506155ff85609b60008b73ffffffffffffffffffffffffffffffffffffffff1673ffffffffffffffffffffffffffffffffffffffff16815260200190815260200160002054614b5690919063ffffffff16565b609b60008a73ffffffffffffffffffffffffffffffffffffffff1673ffffffffffffffffffffffffffffffffffffffff1681526020019081526020016000208190555061564b81615f5b565b61565584836161e9565b8773ffffffffffffffffffffffffffffffffffffffff168973ffffffffffffffffffffffffffffffffffffffff167fddf252ad1be2c89b69c2b068fc378daa952ba7f163c4a11628f55a4df523b3ef856040516156b2919061691b565b60405180910390a3505050505050505050565b6000806000806000806156d787614b6c565b95509550955095509550955061573586609b60008c73ffffffffffffffffffffffffffffffffffffffff1673ffffffffffffffffffffffffffffffffffffffff16815260200190815260200160002054615f4590919063ffffffff16565b609b60008b73ffffffffffffffffffffffffffffffffffffffff1673ffffffffffffffffffffffffffffffffffffffff168152602001908152602001600020819055506157ca85609b60008b73ffffffffffffffffffffffffffffffffffffffff1673ffffffffffffffffffffffffffffffffffffffff16815260200190815260200160002054614b5690919063ffffffff16565b609b60008a73ffffffffffffffffffffffffffffffffffffffff1673ffffffffffffffffffffffffffffffffffffffff1681526020019081526020016000208190555061581681615f5b565b61582084836161e9565b8773ffffffffffffffffffffffffffffffffffffffff168973ffffffffffffffffffffffffffffffffffffffff167fddf252ad1be2c89b69c2b068fc378daa952ba7f163c4a11628f55a4df523b3ef8560405161587d919061691b565b60405180910390a3505050505050505050565b600160c160146101000a81548160ff02191690831515021790555060006158b63061201d565b905060008060b95460b8546158cb91906173c6565b905060008114806158dc5750600083145b156158e957505050615a8c565b600060028260b854866158fc919061736c565b61590691906184f8565b61591091906184f8565b905060006159278286615f4590919063ffffffff16565b9050600047905061593782616223565b600061594c8247615f4590919063ffffffff16565b905060006159778661596960b9548561646690919063ffffffff16565b61497d90919063ffffffff16565b905060008183615987919061778e565b9050600060b881905550600060b9819055506000861180156159a95750600081115b156159f4576159b8868261647c565b7f17bbfb9a6069321b6ded73bd96327c9e6b7212a5cd51ff219cd61370acafb5618582886040516159eb93929190618651565b60405180910390a15b609860009054906101000a900473ffffffffffffffffffffffffffffffffffffffff1673ffffffffffffffffffffffffffffffffffffffff1647604051615a3a906186b9565b60006040518083038185875af1925050503d8060008114615a77576040519150601f19603f3d011682016040523d82523d6000602084013e615a7c565b606091505b5050809850505050505050505050505b600060c160146101000a81548160ff021916908315150217905550565b600080600060a2549050600060a154905060005b60a080549050811015615d1f5782609b600060a08481548110615ae357615ae261751a565b5b9060005260206000200160009054906101000a900473ffffffffffffffffffffffffffffffffffffffff1673ffffffffffffffffffffffffffffffffffffffff1673ffffffffffffffffffffffffffffffffffffffff168152602001908152602001600020541180615bd1575081609c600060a08481548110615b6957615b6861751a565b5b9060005260206000200160009054906101000a900473ffffffffffffffffffffffffffffffffffffffff1673ffffffffffffffffffffffffffffffffffffffff1673ffffffffffffffffffffffffffffffffffffffff16815260200190815260200160002054115b15615be85760a25460a15494509450505050615d58565b615c78609b600060a08481548110615c0357615c0261751a565b5b9060005260206000200160009054906101000a900473ffffffffffffffffffffffffffffffffffffffff1673ffffffffffffffffffffffffffffffffffffffff1673ffffffffffffffffffffffffffffffffffffffff1681526020019081526020016000205484615f4590919063ffffffff16565b9250615d0a609c600060a08481548110615c9557615c9461751a565b5b9060005260206000200160009054906101000a900473ffffffffffffffffffffffffffffffffffffffff1673ffffffffffffffffffffffffffffffffffffffff1673ffffffffffffffffffffffffffffffffffffffff1681526020019081526020016000205483615f4590919063ffffffff16565b91508080615d1790617549565b915050615abd565b50615d3760a15460a25461497d90919063ffffffff16565b821015615d4f5760a25460a154935093505050615d58565b81819350935050505b9091565b600080600080615d6b8561657c565b90506000615d78866165ad565b90506000615da182615d93858a615f4590919063ffffffff16565b615f4590919063ffffffff16565b90508083839550955095505050509193909250565b600080600080615dcf858961646690919063ffffffff16565b90506000615de6868961646690919063ffffffff16565b90506000615dfd878961646690919063ffffffff16565b90506000615e2682615e188587615f4590919063ffffffff16565b615f4590919063ffffffff16565b9050838184965096509650505050509450945094915050565b600080823b905060008111915050919050565b600060019054906101000a900460ff16615ea1576040517f08c379a0000000000000000000000000000000000000000000000000000000008152600401615e989061859b565b60405180910390fd5b565b600060019054906101000a900460ff16615ef2576040517f08c379a0000000000000000000000000000000000000000000000000000000008152600401615ee99061859b565b60405180910390fd5b565b600060019054906101000a900460ff16615f43576040517f08c379a0000000000000000000000000000000000000000000000000000000008152600401615f3a9061859b565b60405180910390fd5b565b60008183615f53919061778e565b905092915050565b600160a7541415615fd15760aa5460ad5482615f77919061736c565b615f8191906184f8565b60b86000828254615f9291906173c6565b9250508190555060aa5460ae5482615faa919061736c565b615fb491906184f8565b60b96000828254615fc591906173c6565b92505081905550616044565b600260a75414156160435760aa5460b05482615fed919061736c565b615ff791906184f8565b60b8600082825461600891906173c6565b9250508190555060aa5460b15482616020919061736c565b61602a91906184f8565b60b9600082825461603b91906173c6565b925050819055505b5b600061604e614952565b90506000616065828461646690919063ffffffff16565b90506160b981609b60003073ffffffffffffffffffffffffffffffffffffffff1673ffffffffffffffffffffffffffffffffffffffff16815260200190815260200160002054614b5690919063ffffffff16565b609b60003073ffffffffffffffffffffffffffffffffffffffff1673ffffffffffffffffffffffffffffffffffffffff16815260200190815260200160002081905550609f60003073ffffffffffffffffffffffffffffffffffffffff1673ffffffffffffffffffffffffffffffffffffffff16815260200190815260200160002060009054906101000a900460ff16156161e4576161a083609c60003073ffffffffffffffffffffffffffffffffffffffff1673ffffffffffffffffffffffffffffffffffffffff16815260200190815260200160002054614b5690919063ffffffff16565b609c60003073ffffffffffffffffffffffffffffffffffffffff1673ffffffffffffffffffffffffffffffffffffffff168152602001908152602001600020819055505b505050565b6161fe8260a254615f4590919063ffffffff16565b60a2819055506162198160a354614b5690919063ffffffff16565b60a3819055505050565b6000600267ffffffffffffffff8111156162405761623f6169bb565b5b60405190808252806020026020018201604052801561626e5781602001602082028036833780820191505090505b50905030816000815181106162865761628561751a565b5b602002602001019073ffffffffffffffffffffffffffffffffffffffff16908173ffffffffffffffffffffffffffffffffffffffff168152505060c060009054906101000a900473ffffffffffffffffffffffffffffffffffffffff1673ffffffffffffffffffffffffffffffffffffffff1663ad5c46486040518163ffffffff1660e01b8152600401602060405180830381865afa15801561632d573d6000803e3d6000fd5b505050506040513d601f19601f820116820180604052508101906163519190617d13565b816001815181106163655761636461751a565b5b602002602001019073ffffffffffffffffffffffffffffffffffffffff16908173ffffffffffffffffffffffffffffffffffffffff16815250506163cc3060c060009054906101000a900473ffffffffffffffffffffffffffffffffffffffff1684613842565b60c060009054906101000a900473ffffffffffffffffffffffffffffffffffffffff1673ffffffffffffffffffffffffffffffffffffffff1663791ac9478360008430426040518663ffffffff1660e01b81526004016164309594939291906186ce565b600060405180830381600087803b15801561644a57600080fd5b505af115801561645e573d6000803e3d6000fd5b505050505050565b60008183616474919061736c565b905092915050565b6164a93060c060009054906101000a900473ffffffffffffffffffffffffffffffffffffffff1684613842565b60c060009054906101000a900473ffffffffffffffffffffffffffffffffffffffff1673ffffffffffffffffffffffffffffffffffffffff1663f305d719823085600080609a60009054906101000a900473ffffffffffffffffffffffffffffffffffffffff16426040518863ffffffff1660e01b815260040161653296959493929190618749565b60606040518083038185885af1158015616550573d6000803e3d6000fd5b50505050506040513d601f19601f8201168201806040525081019061657591906187aa565b5050505050565b60006165a6606461659860a8548561646690919063ffffffff16565b61497d90919063ffffffff16565b9050919050565b60006165d760646165c960aa548561646690919063ffffffff16565b61497d90919063ffffffff16565b9050919050565b8280546165ea9061730b565b90600052602060002090601f01602090048101928261660c5760008555616653565b82601f1061662557805160ff1916838001178555616653565b82800160010185558215616653579182015b82811115616652578251825591602001919060010190616637565b5b5090506166609190616664565b5090565b5b8082111561667d576000816000905550600101616665565b5090565b6000604051905090565b600080fd5b600080fd5b60007fffffffff0000000000000000000000000000000000000000000000000000000082169050919050565b6166ca81616695565b81146166d557600080fd5b50565b6000813590506166e7816166c1565b92915050565b6000602082840312156167035761670261668b565b5b6000616711848285016166d8565b91505092915050565b60008115159050919050565b61672f8161671a565b82525050565b600060208201905061674a6000830184616726565b92915050565b600081519050919050565b600082825260208201905092915050565b60005b8381101561678a57808201518184015260208101905061676f565b83811115616799576000848401525b50505050565b6000601f19601f8301169050919050565b60006167bb82616750565b6167c5818561675b565b93506167d581856020860161676c565b6167de8161679f565b840191505092915050565b6000602082019050818103600083015261680381846167b0565b905092915050565b6000819050919050565b61681e8161680b565b811461682957600080fd5b50565b60008135905061683b81616815565b92915050565b6000602082840312156168575761685661668b565b5b60006168658482850161682c565b91505092915050565b600073ffffffffffffffffffffffffffffffffffffffff82169050919050565b60006168998261686e565b9050919050565b6168a98161688e565b81146168b457600080fd5b50565b6000813590506168c6816168a0565b92915050565b600080604083850312156168e3576168e261668b565b5b60006168f1858286016168b7565b92505060206169028582860161682c565b9150509250929050565b6169158161680b565b82525050565b6000602082019050616930600083018461690c565b92915050565b60006020828403121561694c5761694b61668b565b5b600061695a848285016168b7565b91505092915050565b60008060006060848603121561697c5761697b61668b565b5b600061698a8682870161682c565b935050602061699b8682870161682c565b92505060406169ac8682870161682c565b9150509250925092565b600080fd5b7f4e487b7100000000000000000000000000000000000000000000000000000000600052604160045260246000fd5b6169f38261679f565b810181811067ffffffffffffffff82111715616a1257616a116169bb565b5b80604052505050565b6000616a25616681565b9050616a3182826169ea565b919050565b600067ffffffffffffffff821115616a5157616a506169bb565b5b602082029050602081019050919050565b600080fd5b6000616a7a616a7584616a36565b616a1b565b90508083825260208201905060208402830185811115616a9d57616a9c616a62565b5b835b81811015616ac65780616ab288826168b7565b845260208401935050602081019050616a9f565b5050509392505050565b600082601f830112616ae557616ae46169b6565b5b8135616af5848260208601616a67565b91505092915050565b600067ffffffffffffffff821115616b1957616b186169bb565b5b602082029050602081019050919050565b6000616b3d616b3884616afe565b616a1b565b90508083825260208201905060208402830185811115616b6057616b5f616a62565b5b835b81811015616b895780616b75888261682c565b845260208401935050602081019050616b62565b5050509392505050565b600082601f830112616ba857616ba76169b6565b5b8135616bb8848260208601616b2a565b91505092915050565b60008060408385031215616bd857616bd761668b565b5b600083013567ffffffffffffffff811115616bf657616bf5616690565b5b616c0285828601616ad0565b925050602083013567ffffffffffffffff811115616c2357616c22616690565b5b616c2f85828601616b93565b9150509250929050565b600080600060608486031215616c5257616c5161668b565b5b6000616c60868287016168b7565b9350506020616c71868287016168b7565b9250506040616c828682870161682c565b9150509250925092565b6000819050919050565b616c9f81616c8c565b8114616caa57600080fd5b50565b600081359050616cbc81616c96565b92915050565b600060208284031215616cd857616cd761668b565b5b6000616ce684828501616cad565b91505092915050565b616cf881616c8c565b82525050565b6000602082019050616d136000830184616cef565b92915050565b60008060408385031215616d3057616d2f61668b565b5b6000616d3e85828601616cad565b9250506020616d4f858286016168b7565b9150509250929050565b600060ff82169050919050565b616d6f81616d59565b82525050565b6000602082019050616d8a6000830184616d66565b92915050565b6000616d9b8261686e565b9050919050565b616dab81616d90565b82525050565b6000602082019050616dc66000830184616da2565b92915050565b616dd58161671a565b8114616de057600080fd5b50565b600081359050616df281616dcc565b92915050565b60008060408385031215616e0f57616e0e61668b565b5b6000616e1d8582860161682c565b9250506020616e2e85828601616de3565b9150509250929050565b600060208284031215616e4e57616e4d61668b565b5b600082013567ffffffffffffffff811115616e6c57616e6b616690565b5b616e7884828501616ad0565b91505092915050565b60008060408385031215616e9857616e9761668b565b5b6000616ea6858286016168b7565b9250506020616eb785828601616de3565b9150509250929050565b60008060408385031215616ed857616ed761668b565b5b6000616ee6858286016168b7565b9250506020616ef7858286016168b7565b9150509250929050565b600080fd5b600067ffffffffffffffff821115616f2157616f206169bb565b5b616f2a8261679f565b9050602081019050919050565b82818337600083830152505050565b6000616f59616f5484616f06565b616a1b565b905082815260208101848484011115616f7557616f74616f01565b5b616f80848285616f37565b509392505050565b600082601f830112616f9d57616f9c6169b6565b5b8135616fad848260208601616f46565b91505092915050565b616fbf81616d59565b8114616fca57600080fd5b50565b600081359050616fdc81616fb6565b92915050565b600067ffffffffffffffff821115616ffd57616ffc6169bb565b5b602082029050919050565b600061701b61701684616fe2565b616a1b565b9050806020840283018581111561703557617034616a62565b5b835b8181101561705e578061704a8882616de3565b845260208401935050602081019050617037565b5050509392505050565b600082601f83011261707d5761707c6169b6565b5b600661708a848285617008565b91505092915050565b600067ffffffffffffffff8211156170ae576170ad6169bb565b5b602082029050919050565b60006170cc6170c784617093565b616a1b565b905080602084028301858111156170e6576170e5616a62565b5b835b8181101561710f57806170fb888261682c565b8452602084019350506020810190506170e8565b5050509392505050565b600082601f83011261712e5761712d6169b6565b5b600d61713b8482856170b9565b91505092915050565b6000806000806000806102e087890312156171625761716161668b565b5b600087013567ffffffffffffffff8111156171805761717f616690565b5b61718c89828a01616f88565b965050602087013567ffffffffffffffff8111156171ad576171ac616690565b5b6171b989828a01616f88565b95505060406171ca89828a01616fcd565b94505060606171db89828a016168b7565b93505060806171ec89828a01617068565b9250506101406171fe89828a01617119565b9150509295509295509295565b6000602082840312156172215761722061668b565b5b600061722f84828501616de3565b91505092915050565b6172418161688e565b82525050565b600060208201905061725c6000830184617238565b92915050565b6000819050919050565b600061728761728261727d8461686e565b617262565b61686e565b9050919050565b60006172998261726c565b9050919050565b60006172ab8261728e565b9050919050565b6172bb816172a0565b82525050565b60006020820190506172d660008301846172b2565b92915050565b7f4e487b7100000000000000000000000000000000000000000000000000000000600052602260045260246000fd5b6000600282049050600182168061732357607f821691505b60208210811415617337576173366172dc565b5b50919050565b7f4e487b7100000000000000000000000000000000000000000000000000000000600052601160045260246000fd5b60006173778261680b565b91506173828361680b565b9250817fffffffffffffffffffffffffffffffffffffffffffffffffffffffffffffffff04831182151516156173bb576173ba61733d565b5b828202905092915050565b60006173d18261680b565b91506173dc8361680b565b9250827fffffffffffffffffffffffffffffffffffffffffffffffffffffffffffffffff038211156174115761741061733d565b5b828201905092915050565b7f4d757374206b6565702074617865732062656c6f772033302500000000000000600082015250565b600061745260198361675b565b915061745d8261741c565b602082019050919050565b6000602082019050818103600083015261748181617445565b9050919050565b7f61697264726f70546f57616c6c6574733a3a20417272617973206d757374206260008201527f65207468652073616d65206c656e677468000000000000000000000000000000602082015250565b60006174e460318361675b565b91506174ef82617488565b604082019050919050565b60006020820190508181036000830152617513816174d7565b9050919050565b7f4e487b7100000000000000000000000000000000000000000000000000000000600052603260045260246000fd5b60006175548261680b565b91507fffffffffffffffffffffffffffffffffffffffffffffffffffffffffffffffff8214156175875761758661733d565b5b600182019050919050565b7f4d757374206b6565702074617865732062656c6f772032302500000000000000600082015250565b60006175c860198361675b565b91506175d382617592565b602082019050919050565b600060208201905081810360008301526175f7816175bb565b9050919050565b7f416d6f756e74206d757374206265206c657373207468616e20746f74616c207260008201527f65666c656374696f6e7300000000000000000000000000000000000000000000602082015250565b600061765a602a8361675b565b9150617665826175fe565b604082019050919050565b600060208201905081810360008301526176898161764d565b9050919050565b7f416363657373436f6e74726f6c3a2063616e206f6e6c792072656e6f756e636560008201527f20726f6c657320666f722073656c660000000000000000000000000000000000602082015250565b60006176ec602f8361675b565b91506176f782617690565b604082019050919050565b6000602082019050818103600083015261771b816176df565b9050919050565b7f4163636f756e74206973206e6f74206578636c75646564000000000000000000600082015250565b600061775860178361675b565b915061776382617722565b602082019050919050565b600060208201905081810360008301526177878161774b565b9050919050565b60006177998261680b565b91506177a48361680b565b9250828210156177b7576177b661733d565b5b828203905092915050565b7f4e487b7100000000000000000000000000000000000000000000000000000000600052603160045260246000fd5b7f416d6f756e74206d757374206265206c657373207468616e20737570706c7900600082015250565b6000617827601f8361675b565b9150617832826177f1565b602082019050919050565b600060208201905081810360008301526178568161781a565b9050919050565b7f4163636f756e7420697320616c7265616479206578636c756465640000000000600082015250565b6000617893601b8361675b565b915061789e8261785d565b602082019050919050565b600060208201905081810360008301526178c281617886565b9050919050565b7f43616e6e6f74206578636c756465206d6f7265207468616e203530206163636f60008201527f756e74732e2020496e636c75646520612070726576696f75736c79206578636c60208201527f7564656420616464726573732e00000000000000000000000000000000000000604082015250565b600061794b604d8361675b565b9150617956826178c9565b606082019050919050565b6000602082019050818103600083015261797a8161793e565b9050919050565b600081519050919050565b600082825260208201905092915050565b6000819050602082019050919050565b6179b68161688e565b82525050565b60006179c883836179ad565b60208301905092915050565b6000602082019050919050565b60006179ec82617981565b6179f6818561798c565b9350617a018361799d565b8060005b83811015617a32578151617a1988826179bc565b9750617a24836179d4565b925050600181019050617a05565b5085935050505092915050565b60006020820190508181036000830152617a5981846179e1565b905092915050565b7f43616e2774207769746864726177206e617469766520746f6b656e7300000000600082015250565b6000617a97601c8361675b565b9150617aa282617a61565b602082019050919050565b60006020820190508181036000830152617ac681617a8a565b9050919050565b600081519050617adc81616815565b92915050565b600060208284031215617af857617af761668b565b5b6000617b0684828501617acd565b91505092915050565b6000604082019050617b246000830185617238565b617b31602083018461690c565b9392505050565b600081519050617b4781616dcc565b92915050565b600060208284031215617b6357617b6261668b565b5b6000617b7184828501617b38565b91505092915050565b7f54686520706169722063616e6e6f742062652072656d6f7665642066726f6d2060008201527f6175746f6d617465644d61726b65744d616b6572506169727300000000000000602082015250565b6000617bd660398361675b565b9150617be182617b7a565b604082019050919050565b60006020820190508181036000830152617c0581617bc9565b9050919050565b7f496e697469616c697a61626c653a20636f6e747261637420697320616c72656160008201527f647920696e697469616c697a6564000000000000000000000000000000000000602082015250565b6000617c68602e8361675b565b9150617c7382617c0c565b604082019050919050565b60006020820190508181036000830152617c9781617c5b565b9050919050565b7f4e487b7100000000000000000000000000000000000000000000000000000000600052601260045260246000fd5b6000617cd88261680b565b9150617ce38361680b565b925082617cf357617cf2617c9e565b5b828206905092915050565b600081519050617d0d816168a0565b92915050565b600060208284031215617d2957617d2861668b565b5b6000617d3784828501617cfe565b91505092915050565b6000604082019050617d556000830185617238565b617d626020830184617238565b9392505050565b6000819050919050565b6000617d8e617d89617d8484617d69565b617262565b61680b565b9050919050565b617d9e81617d73565b82525050565b6000608082019050617db96000830187617d95565b8181036020830152617dcb81866179e1565b9050617dda6040830185617238565b617de7606083018461690c565b95945050505050565b600081905092915050565b7f416363657373436f6e74726f6c3a206163636f756e7420000000000000000000600082015250565b6000617e31601783617df0565b9150617e3c82617dfb565b601782019050919050565b6000617e5282616750565b617e5c8185617df0565b9350617e6c81856020860161676c565b80840191505092915050565b7f206973206d697373696e6720726f6c6520000000000000000000000000000000600082015250565b6000617eae601183617df0565b9150617eb982617e78565b601182019050919050565b6000617ecf82617e24565b9150617edb8285617e47565b9150617ee682617ea1565b9150617ef28284617e47565b91508190509392505050565b7f45524332303a20617070726f76652066726f6d20746865207a65726f2061646460008201527f7265737300000000000000000000000000000000000000000000000000000000602082015250565b6000617f5a60248361675b565b9150617f6582617efe565b604082019050919050565b60006020820190508181036000830152617f8981617f4d565b9050919050565b7f45524332303a20617070726f766520746f20746865207a65726f20616464726560008201527f7373000000000000000000000000000000000000000000000000000000000000602082015250565b6000617fec60228361675b565b9150617ff782617f90565b604082019050919050565b6000602082019050818103600083015261801b81617fdf565b9050919050565b7f45524332303a207472616e736665722066726f6d20746865207a65726f20616460008201527f6472657373000000000000000000000000000000000000000000000000000000602082015250565b600061807e60258361675b565b915061808982618022565b604082019050919050565b600060208201905081810360008301526180ad81618071565b9050919050565b7f45524332303a207472616e7366657220746f20746865207a65726f206164647260008201527f6573730000000000000000000000000000000000000000000000000000000000602082015250565b600061811060238361675b565b915061811b826180b4565b604082019050919050565b6000602082019050818103600083015261813f81618103565b9050919050565b7f5472616e7366657220616d6f756e74206d75737420626520677265617465722060008201527f7468616e207a65726f0000000000000000000000000000000000000000000000602082015250565b60006181a260298361675b565b91506181ad82618146565b604082019050919050565b600060208201905081810360008301526181d181618195565b9050919050565b7f54726164696e67206973206e6f7420616374697665207965742e000000000000600082015250565b600061820e601a8361675b565b9150618219826181d8565b602082019050919050565b6000602082019050818103600083015261823d81618201565b9050919050565b7f4761732070726963652065786365656473206c696d69742e0000000000000000600082015250565b600061827a60188361675b565b915061828582618244565b602082019050919050565b600060208201905081810360008301526182a98161826d565b9050919050565b7f5f7472616e736665723a3a205472616e736665722044656c617920656e61626c60008201527f65642e20204f6e6c79206f6e652070757263686173652070657220626c6f636b60208201527f20616c6c6f7765642e0000000000000000000000000000000000000000000000604082015250565b600061833260498361675b565b915061833d826182b0565b606082019050919050565b6000602082019050818103600083015261836181618325565b9050919050565b7f427579207472616e7366657220616d6f756e742065786365656473207468652060008201527f6d61785472616e73616374696f6e416d6f756e742e0000000000000000000000602082015250565b60006183c460358361675b565b91506183cf82618368565b604082019050919050565b600060208201905081810360008301526183f3816183b7565b9050919050565b7f43616e6e6f7420657863656564206d61782077616c6c65740000000000000000600082015250565b600061843060188361675b565b915061843b826183fa565b602082019050919050565b6000602082019050818103600083015261845f81618423565b9050919050565b7f53656c6c207472616e7366657220616d6f756e7420657863656564732074686560008201527f206d61785472616e73616374696f6e416d6f756e742e00000000000000000000602082015250565b60006184c260368361675b565b91506184cd82618466565b604082019050919050565b600060208201905081810360008301526184f1816184b5565b9050919050565b60006185038261680b565b915061850e8361680b565b92508261851e5761851d617c9e565b5b828204905092915050565b7f496e697469616c697a61626c653a20636f6e7472616374206973206e6f74206960008201527f6e697469616c697a696e67000000000000000000000000000000000000000000602082015250565b6000618585602b8361675b565b915061859082618529565b604082019050919050565b600060208201905081810360008301526185b481618578565b9050919050565b60006185c68261680b565b915060008214156185da576185d961733d565b5b600182039050919050565b7f537472696e67733a20686578206c656e67746820696e73756666696369656e74600082015250565b600061861b60208361675b565b9150618626826185e5565b602082019050919050565b6000602082019050818103600083015261864a8161860e565b9050919050565b6000606082019050618666600083018661690c565b618673602083018561690c565b618680604083018461690c565b949350505050565b600081905092915050565b50565b60006186a3600083618688565b91506186ae82618693565b600082019050919050565b60006186c482618696565b9150819050919050565b600060a0820190506186e3600083018861690c565b6186f06020830187617d95565b818103604083015261870281866179e1565b90506187116060830185617238565b61871e608083018461690c565b9695505050505050565b60006187338261728e565b9050919050565b61874381618728565b82525050565b600060c08201905061875e6000830189617238565b61876b602083018861690c565b6187786040830187617d95565b6187856060830186617d95565b618792608083018561873a565b61879f60a083018461690c565b979650505050505050565b6000806000606084860312156187c3576187c261668b565b5b60006187d186828701617acd565b93505060206187e286828701617acd565b92505060406187f386828701617acd565b915050925092509256fe45524332303a207472616e7366657220616d6f756e74206578636565647320616c6c6f77616e636545524332303a2064656372656173656420616c6c6f77616e63652062656c6f77207a65726fa2646970667358221220c0678c7721587802067b6ef63599395882225fd2cd7732145708e109edfa673664736f6c634300080b0033",
  "linkReferences": {},
  "deployedLinkReferences": {}
}